:020000040800F2
:10000000C0880020E9010008151F0008C110000881
:10001000B71D0008B10900086D2B000800000000A2
:100020000000000000000000000000004501000882
:10003000090E0008000000008901000841260008A0
:10004000030200080302000803020008030200087C
:100050000302000803020008350E0008030200082E
:10006000030200080302000803020008030200085C
:10007000030200080302000803020008030200084C
:10008000030200080302000803020008030200083C
:10009000030200080302000803020008030200082C
:1000A000030200080302000803020008030200081C
:1000B000030200080302000803020008030200080C
:1000C00003020008030200080302000803020008FC
:1000D00003020008B5260008B5270008030200083F
:1000E00003020008030200080302000803020008DC
:1000F00003020008030200080302000803020008CC
:1001000003020008030200080302000803020008BB
:1001100003020008030200080302000803020008AB
:10012000030200080302000803020008030200089B
:10013000DFF80CD000F0E2FA00480047E137000891
:10014000C0880020204B19680868B0E8F00F80F3E1
:100150000988BFF36F8F4FF0000080F311884EF0D5
:100160000D0E70470000000006480068006880F32C
:10017000088862B661B6BFF34F8FBFF36F8F00DFA1
:1001800000BF00BF08ED00E0EFF30980BFF36F8F01
:100190000D4B1A6820E9F00F106008B54FF0BF0052
:1001A00080F3118804F0F0FC4FF0000080F3118818
:1001B000BDE8084019680868B0E8F00F80F30988C6
:1001C000BFF36F8F704700BF44000020EFF3118032
:1001D0004FF0BF0181F31188704780F31188704799
:1001E000EFF3058070470000064880470648004747
:1001F000FEE7FEE7FEE7FEE7FEE7FEE7FEE7FEE7D7
:10020000FEE7FEE76526000831010008421E062AC7
:1002100002D36FF0010070470B4B53F8220043F8F4
:100220002210704710B5421E062A02D34FF0FF304D
:1002300010BD054951F82210CA1C02D04A1C00D03A
:100240008847002010BD0000A884002040EA010378
:100250009B0703D009E008C9121F08C0042AFAD27C
:1002600003E011F8013B00F8013B521EF9D2704740
:10027000D2B201E000F8012B491EFBD270470022E8
:10028000F6E710B513460A4604461946FFF7F0FF95
:10029000204610BD30B505462A460B4612F8010B24
:1002A00013F8014B08B1A042F8D01CB1002802D0CD
:1002B0006D1CF1E7284630BD421C10F8011B0029D7
:1002C000FBD1801A7047034611F8012B00F8012B6F
:1002D000002AF9D11846704700F0004230F0004083
:1002E0000AD0C10D01F56071C0F3160042EA015158
:1002F000C20840071143704700200146704730B5DF
:100300000B46014600202022012409E021FA02F5D3
:100310009D4205D303FA02F5491B04FA02F528446D
:10032000151EA2F10102F1DC30BD2DE9F05F05469A
:10033000002092469B4688460646814640241BE0A4
:10034000284641464746224600F0F9F953465A46A8
:10035000C01A914110D311461846224600F0E0F928
:100360002D1A67EB01084F4622460120002100F0BC
:10037000D7F917EB00094E41201EA4F10104DFDC80
:10038000484631462A464346BDE8F09F2DE9FE4FD8
:10039000804681EA0300C00F0C46009021F0004126
:1003A00023F00045B8EB0200A94105D240462146A2
:1003B00090461C460B46024623F00040104347D0AF
:1003C000270DC7F30A00C3F30A510290401A0190A7
:1003D00040286BDAC3F3130040F4801B0098924668
:1003E00020B10023D2EB030A63EB0B0B01985946B3
:1003F000C0F14002504600F093F906460D465046C3
:100400005946019A00F0ABF910EB08006141002455
:1004100087EA115284EAE7731A4340D0009A62B324
:10042000019A012A4FEA075215DC001B61EB020119
:100430004FF0004202EA0752CDE90042001C41F5AC
:10044000801132462B4600F0ABF903B0BDE8F08FC7
:1004500040462146F9E7001B61EB0201001C41F513
:10046000801300185B412018A2F5001747EB030129
:1004700040EAD570B6196D4111E06D084FEA3606B5
:1004800045EAC0754FEA0752001B61EB0201001CF0
:1004900041F5801149084FEA3000001951413246B8
:1004A0002B4603B0BDE8F04F00F06BB90098012275
:1004B00040000023D0EB020263EBE073009821467A
:1004C0004FEAE074B8EB000061EB0401E9E783F068
:1004D00000435BE781F0004158E72DE9FE4F81EAD8
:1004E000030404F0004421F0004100944FF0000B9D
:1004F00023F0004350EA01045ED052EA03045BD0CB
:10050000C3F30A54C1F30A552C44A4F2F334019402
:10051000A0FB0254C1F3130141F48011C3F3130390
:1005200043F4801301FB024400FB034E840A970A44
:1005300044EA815447EA8357A4FB076802958D0A71
:1005400005FB07854FEA932C04FB0C542705029DFD
:100550004FEA065847EA1637B5EB08056EEB070C6D
:10056000870E920E47EA811742EA8312A7FB020127
:10057000B6EB0B0164EB00042B0D43EA0C335E1861
:1005800044EB1C50DA465146E7FB0201C5F3130465
:100590004FEA0B3343EA14534FEA0432019C43EA17
:1005A0000603A4F10C040294009CCDE900B400F011
:1005B000F7F803B0BDE8F08F00200146F9E72DE918
:1005C000F04D81EA030404F0004B21F0004514468D
:1005D0004FF0000A23F0004150EA050220D054EA0F
:1005E00001021DD0C5F30A570246C5F31303C1F338
:1005F0001300C1F30A5640F4801543F48013A7EBAF
:100600000608101BD64608F2FD3873EB050002D32E
:1006100008F1010801E092185B41B8F1000F03DA1C
:1006200000200146BDE8F08D00204FF48011064601
:1006300084460EE0171B73EB050705D3121B63EB13
:10064000050306434CEA010C49084FEA30009218B2
:100650005B4150EA0107EDD152EA030012D082EA71
:10066000040083EA0501084305D0101BAB4106D204
:100670000122002306E000224FF0004302E06FF069
:10068000010253101AEB06004CEB085110EB0A0064
:1006900041EB0B01BDE8F04D00F073B8C1F30A5215
:1006A000C1F3130140F2FF3341F480119A4202DAA0
:1006B00000200146704740F233439A42A2F233428F
:1006C00002DC524200F03BB800F02AB830B5041EFC
:1006D00071F1000404DB4FF00044404264EB01017F
:1006E000141E73F1000405DB1C464FF00043524218
:1006F00063EB0403994208BF904230BD064C074D9E
:1007000006E0E06840F0010394E8070098471034E1
:10071000AC42F6D3FFF710FDD05C0008F05C000897
:10072000202A04DB203A00FA02F1002070479140B1
:10073000C2F1200320FA03F3194390407047202AA6
:1007400004DB203A21FA02F00021704721FA02F37B
:10075000D040C2F120029140084319467047202A38
:1007600006DBCB17203A41FA02F043EAE07306E0D9
:1007700041FA02F3D040C2F12002914008431946E9
:10078000704710B5141E73F1000408DA401C41F1E3
:10079000000192185B411A4301D120F0010010BD05
:1007A0002DE9F04D92469B4611B1B1FA81F202E07B
:1007B000B0FA80F220329046FFF7B2FF04460F46AF
:1007C00040EA0A0041EA0B0153465A46084313D057
:1007D000114653EA010019D0C8F140025046FFF714
:1007E000AEFF05460E46504659464246FFF798FF73
:1007F000084305D0012004E020463946BDE8F08DCD
:100800000020054346EAE0762C4337430A98630507
:10081000E40AA0EB08000022FD0A44EA47540A302B
:1008200002D500200146E9E7010510196941DDE91B
:10083000084500196941BDE8F04DA2E770B58C1874
:1008400010F8015B15F0070301D110F8013B2A11E4
:1008500006D110F8012B03E010F8016B01F8016BD1
:100860005B1EF9D12B0705D40023521E0DD401F8CD
:10087000013BFAE710F8013BCB1A921C03E013F896
:10088000015B01F8015B521EF9D5A142D8D30020CB
:1008900070BD000010B54FF4407001F06FFB02F026
:1008A00061FE4FF4E134204601F01EFF00221146A4
:1008B000204601F0E3FF0F490F4800F097FC0FA01E
:1008C00002F0AEF919A11BA002F0AAF91FA222A101
:1008D00024A002F0A5F929A002F0A2F900F0ACFCD6
:1008E000324880210160102101602021016008212F
:1008F000016010BD25240008B50900080D0A3D3D22
:100900003D3D3D3D3D3D3D3D3D3D3D3D3D3D3D3D17
:100910003D3D3D3D3D3D3D3D3D3D3D3D3D3D3D3D07
:100920003D3D3D3D3D3D3D3D3D0D0A0056382E329D
:100930002E3300004672656552544F53205665723F
:1009400073696F6E203A2025730D0A0031363A31F3
:10095000393A3033000000004175672032322032CE
:1009600030313800436F6D70696C652054696D6576
:10097000203A202573202025730D0A003D3D3D3D82
:100980003D3D3D3D3D3D3D3D3D3D3D3D3D3D3D3D97
:100990003D3D3D3D3D3D3D3D3D3D3D3D3D3D3D3D87
:1009A0003D3D3D3D3D3D3D0D0A000000140C014024
:1009B000FEE7000000B5C1B0684603F0B3FF0DA02C
:1009C00002F02EF917A002F02BF91EA002F028F970
:1009D000694628A002F024F91AA002F021F904F0D7
:1009E00039F9014624A002F01BF916A002F018F90B
:1009F00041B000BD0D0A2D2D2D2D2D2D2D2D2D2D70
:100A00002D2D2D2D2D2D2D2D2D2D2D2D2D2D2D2D16
:100A10002D2D2D2D2D2D2D2D2D2D2D2D2D2D2D2D06
:100A20002D0D0A004E616D650909537461746509E5
:100A30005072696F7209537461636B094E756D0D65
:100A40000A0000002D2D2D2D2D2D2D2D2D2D2D2D80
:100A50002D2D2D2D2D2D2D2D2D2D2D2D2D2D2D2DC6
:100A60002D2D2D2D2D2D2D2D2D2D2D2D2D2D2D0DD6
:100A70000A000000257300002020202A2A20557338
:100A800061626C652052414D2073697A65206973FB
:100A9000202564204279746573202A2A0D0A0000FB
:100AA00010B5002406A107A002F092FF28B9012486
:100AB000A1220FA117A002F0B3F8204610BD00003C
:100AC0004F4B000041542B43495053544152543D25
:100AD00022544350222C2234372E3130362E3230DD
:100AE000392E323131222C313838330D0A000000D2
:100AF0002E2E5C536F757263655C65737038323689
:100B0000365C657370383236365F68616E646C656A
:100B1000722E630025735F25643A636F6E6E6563A2
:100B2000742073657276657220746370206F6B2118
:100B30000D0A000070B516480024016821F4700108
:100B40000160016841F400010160124D04E0641C81
:100B5000E4B2012000F059F9D5F8140110B1642C69
:100B6000F5D30DE0642C0BD2002404E0641CE4B245
:100B7000012000F04AF9D5F8140118B1642C04D30F
:100B8000012070BD642CF1D3FAE7002070BD000095
:100B9000000801400000214238B50121042001F085
:100BA000D3FB2020ADF8000010208DF803000320B7
:100BB000074C8DF802006946204600F0FBF9202121
:100BC000204600F07AFA00F061F8FFF7B3FF38BD75
:100BD0000008014070B50024104D04E0641CE4B22C
:100BE000012000F012F9D5F8140108B1642CF5D3F6
:100BF000002404E0641CE4B2012000F006F9D5F8FA
:100C0000140108B9642CF5D3282000F0FEF8D5F8BB
:100C10001401002800D0012070BD00000000214216
:100C200070B5002004464006050EFFF7D3FF641C94
:100C30002843E4B2082CF6D370BD2DE9FC410E46E2
:100C4000074600F023F8FFF775FF10B10120BDE85B
:100C5000FC8100246D46FFF7E3FF2855641CE4B2D5
:100C6000052CF8D39DF800009DF801109DF8033085
:100C700042189DF802100B441A449DF804309A4221
:100C800001D1307039700020E1E700000C4810B548
:100C9000016821F470010160016841F440110160B4
:100CA000084C0020C4F89401142004F5CA7400F024
:100CB000B5F801202060BDE810401E2000F0A5B866
:100CC00000080140000021420029016802D041F0E3
:100CD000010102E04FF6FE72114001607047000012
:100CE00001684FF6FE721140016000210160416011
:100CF0008160C1603149314A0839904203D1486866
:100D000040F00F0006E02D4A1432904204D14868AA
:100D100040F0F00048607047284A2832904203D1E2
:100D2000486840F47060F5E7244A3C32904203D1B1
:100D3000486840F47040EDE7204A5032904203D1B9
:100D4000486840F47020E5E71C4A6432904203D1C1
:100D5000486840F47000DDE7184A7832904203D1C9
:100D6000486840F07060D5E7154A111F904203D1E2
:100D7000086840F00F0006E0114A1432904204D196
:100D8000086840F0F000086070470D4A2832904231
:100D900003D1086840F47060F5E7094A3C3290429C
:100DA00003D1086840F47040EDE7054A50329042A4
:100DB000EAD1086840F47020E5E70000080002402E
:100DC00008040240406880B2704730B5026847F6B8
:100DD000F0739A430C6A8B682343D1E904452C4392
:100DE00023438C692343CC6923434C6A23438C6A95
:100DF000234313430360CA6842600A6882604968FB
:100E0000C16030BD41607047704703E00A21491E50
:100E100089B2FCD2401E80B2F8D2704742F6E0633D
:100E200003E01946491E89B2FCD2401E80B2F8D2B6
:100E30007047000038B5012000F030F8002824D0B9
:100E40000024124D0094234622460321286804F012
:100E5000E3FA002300941A460321686804F0DCFAE0
:100E6000012000F015F804F07FF9024600940023F9
:100E70000121286804F0D0FA04F076F902460094C3
:100E800000230121686804F0C7FA38BD90000020F3
:100E9000014908607047000014040140064A0146F9
:100EA00000201268044B0A4014331B680B4202D026
:100EB000002A00D0012070470004014030B51A4AD2
:100EC0008379016853B313688B431360111D0B685A
:100ED0000468A3430B60017911440B680468234341
:100EE0000B60114B083319680468A14319601C1D7D
:100EF00021680568A94321604179102905D0114472
:100F00000A68006802430A6030BD1968026811432C
:100F10001960216800680143216030BD00791044E8
:100F200002688A43026030BD00040140034900208A
:100F30000978032900D101207047000085050020B1
:100F400030B5A1B00D46144680216846FFF797F9E9
:100F5000224609A1684601F087FE0BA1684602F00F
:100F600037FD10B1012021B030BD2146284601F0E7
:100F70002DFD0020F7E7000041542B434950534515
:100F80004E443D25640D0A003E00000010B58A075E
:100F900021F003040649120F21440F238C6893406B
:100FA0009C438C608B68904003438B6010BD0000B5
:100FB00000000140F0B5CC78002204F00F03E406F5
:100FC00001D58C7823430C784FF00F0C14F0FF0FF1
:100FD0004FF0010E1BD005680E880EFA02F4264071
:100FE000A64210D196000CFA06F725EA070703FA85
:100FF00006F5CE783D43282E02D0482E02D002E0DE
:10100000446100E00461521C082AE5D305600A88A7
:10101000FF2A1CD94468002202F108060EFA06F5E0
:101020000E882E40AE420ED196000CFA06F7BC4355
:1010300003FA06F7CE783C43282E00D14561CE78DE
:10104000482E00D10561521C082AE5D34460F0BD4A
:10105000F0B5144C002801DAE36900E06368450D3F
:101060002E0185B2C0F30157B540C0F30342032FF0
:1010700005D0C6020AD503269640B34307E023F005
:101080007062636823F07063636002E0AB4343F017
:10109000706201B12A43002801DAE261F0BD6260AA
:1010A000F0BD0000000001400246002092680A42A4
:1010B00000D0012070474161704701617047000016
:1010C00006A001F0ADFD0F4801680F4A01F4E06190
:1010D00011430160BFF3408FFEE700002D2D2D2D41
:1010E0002D2D2D2D2D486172644661756C745F48FD
:1010F000616E646C65722D2D2D2D2D2D2D2D2D2DB8
:101100002D0D0A000CED00E00400FA0570B50B4D42
:101110004FF4005421462846FFF7CFFFA600314682
:101120002846FFF7CAFF31462846FFF7C4FF21468D
:101130002846BDE87040FFF7BEBF0000000C01402C
:1011400070B5094C4FF400512046FFF7B6FF4FF43D
:10115000004529462046FFF7AEFF29462046BDE858
:101160007040FFF7AABF0000000C014070B5064DAB
:101170004FF4005421462846FFF79FFF214628469A
:10118000BDE87040FFF797BF000C01407FB501211B
:10119000052001F0D9F806208DF808000A208DF806
:1011A000090000258DF80A5001248DF80B4002A893
:1011B00000F0B2FEADF80C4048208DF80F0003A9F6
:1011C0000948FFF7F7FE00210846FFF7DFFE8DF81C
:1011D00004500C208DF8050000948DF806406846F8
:1011E000FFF76CFE7FBD00000008014038B50C4CD5
:1011F000C4E90201FFF7CAFF0A4800900123002258
:10120000FA2109A004F0CAF820600A4800900123DE
:10121000002241F2883104A004F0C0F8606038BDBB
:101220009000002021440008764B45595461736BAF
:10123000000000005544000838B50121082001F0E5
:1012400083F80121084601F07FF801211C48FFF7CF
:10125000FFFE01211B48FFF7FBFE8020ADF80000D8
:1012600010248DF803400320174D8DF802006946C5
:101270002846FFF79FFEADF8004069462846FFF775
:1012800099FE2021ADF8001069462846FFF792FE2E
:101290000820ADF8000069462846FFF78BFE802144
:1012A0002846FFF70AFF10212846FFF706FF2021F6
:1012B0002846FFF702FF08212846FFF7FEFE38BD4B
:1012C0000004300000023000000C01402DE9FC4118
:1012D000074600240E4625466846009202F064FE4A
:1012E0000146204661F307000009022819D101A92F
:1012F000009800F0B7F8009905460844019900905D
:101300000144081A02280CDB684602F04DFE60F327
:10131000070404F001003870684602F045FE3070A2
:1013200001252846BDE8FC812DE9FC5F8046DDE90A
:101330000EA00024CDE90004994617460E46254626
:10134000DDF834B0684602F02FFE60F30704200990
:1013500003282BD1C4F3C00188F80010C4F3410066
:10136000306004F00100387001A9009800F07AF8AC
:1013700000990546084401990090441822466946A0
:101380000C9802F020FE88B10098201A0ED4306824
:10139000002804DD684602F00DFEA9F80000009860
:1013A000221ACAF800200125CBF800002846BDE823
:1013B000FC9F2DE9FC4782464FF000090A980090F7
:1013C0001E46144688464D464F46684602F0ECFDE0
:1013D00060F307052809092826D101A9009800F023
:1013E00041F8009907460844019900904518281AC9
:1013F000022819DB684602F0DDFDAAF80000C4F8F7
:1014000000900DE02168414502DD4FF0FF370BE011
:10141000684602F0C9FD21688A00491C2160B0506D
:101420000098A842EED301273846BDE8FC87F8B5FE
:10143000012400250E4607460D606D1C042D0FDCAF
:1014400001216846B84701280AD19DF8000031689B
:1014500000F07F0202FB0411E40131600006ECD4CD
:101460002846F8BD024A10600248FFF7E0BF0000BE
:10147000900500208935000810B504460020CA17E1
:1014800001EB526323F07F02891ACAB2D9110029F5
:1014900001DD42F08002225400F10100EFDC10BDBA
:1014A000401C802801DA401C7047B0F5804F01DAFB
:1014B000801C70470349884201DAC01C7047001D38
:1014C00070470000FFFF1F002DE9F8430025884604
:1014D000164604464FF0FF3701210095B04701281A
:1014E00016D169463046FFF7A2FF601C0099FFF74E
:1014F000C3FF0099401C0B18434509DC21B120446F
:10150000B0470099884203D1207860F307052F097E
:101510003846BDE8F88300002DE9F8430646009000
:10152000884614460025104600F082F88146FFF7F1
:10153000B7FF404502DDA81EBDE8F8832F463946B7
:1015400067F307016846103103F054FB49460098E1
:10155000FFF792FF009908440090207A04281DD0DC
:101560002FA1684603F032FB0321684603F042FBDB
:10157000A07E67F3070560F34105E07E08B145F002
:101580000405680707D594F83D0060F3C40594F896
:101590003C0060F34515206C40B905E022A1684687
:1015A00003F014FB0421E0E7A06C08B145F08005CE
:1015B000E06C08B9606D08B145F040052946684601
:1015C00003F018FB218B684603F01AFB04F10C01B1
:1015D00068460EC903F023FBE07E68B124346846F8
:1015E00094E80E00243C03F01AFB3034684694E87B
:1015F0000E00303C03F013FB280605D504F1400132
:1016000068460EC903F00BFB680605D54C346846E6
:1016100094E80E0003F003FB0098801B8CE70000A9
:101620004D514973647000004D5154540000000046
:1016300070B50446007A0025032802D0042802D0A1
:1016400002E00C2500E00A2504F10C0007C800F0B8
:10165000ABFB0544E07EAD1C78B1243494E8070070
:10166000243C00F0A1FB3034064694E80700303CEF
:1016700000F09AFB304405442D1D206C08B9A16C84
:1016800029B1D4E9111200F08FFB0544AD1CE06CC8
:1016900008B9616D29B1D4E9141200F085FB054445
:1016A000AD1C284670BD2DE9FC5F1C46129ECDE99D
:1016B0000060DDF838B09046DDF830A0DDE90F239A
:1016C000894605465946204600F030F80746FFF7A0
:1016D000E7FE484503DD6FF00100BDE8FC9F3021C7
:1016E00068F3C30164F342016AF3000101A803F047
:1016F00081FA39460198FFF7BFFE0199084401902D
:10170000DDE90F23594601A803F089FA002C03DD17
:1017100001A80D9903F074FA324611990198FEF769
:1017200095FD019830440190401BD6E770B50E46F8
:10173000114604461A463046049D00F035FB284405
:10174000801C002C00DD801C70BD2DE9FF4F83B094
:101750008A46DDE910870646002501909346DDF8AC
:1017600048902C463946404600F035F80090FFF787
:1017700097FE504503DDA81E07B0BDE8F08F65F366
:10178000070580356BF3C30525F00600801CC1B248
:1017900001A803F02FFADDE90010FFF76DFE0199B3
:1017A0000844019001A8069903F02AFA0EE004EB20
:1017B000440007EB800501A895E80E0003F02FFA1E
:1017C00019F8241001A803F015FA641C4445EEDB57
:1017D0000198801BD0E72DE9F04102250E4607460F
:1017E000002409E004EB440006EB800007C800F089
:1017F000DBFA0544641CED1CBC42F3DB2846BDE863
:10180000F081000030B5CBB05822244933A8FEF750
:101810001DFD40F25B700090C82421A3882225A101
:101820002EA001F0FDF9374836901E20ADF8E400F7
:1018300001208DF8E60034A0439035A0469033AAED
:10184000214601A8FFF768FE334D024601A96868EA
:1018500002F0EFFB314A214601A8FFF735FE0228CE
:1018600011D1234601AA694649A8FFF72FFD012897
:1018700002D19DF8000050B19DF800309F220DA1CB
:1018800027A001F0CDF94FF0FF304BB030BDA622BC
:1018900008A12EA001F0C4F96868F6E7785C00089A
:1018A0007777772E6A69616F6D656E676B652E78E5
:1018B000696E00002E2E5C536F757263655C4D512E
:1018C00054545061636B65745C73616D706C6573C7
:1018D0005C70756230737562312E630025735F250D
:1018E000643A53656E64696E6720746F20686F7325
:1018F000746E616D653A25732C706F72743A25644D
:101900000D0A0000F882002061646D696E0000001D
:101910007075626C69630000A80500202D40000806
:1019200025735F25643A556E61626C6520746F2083
:10193000636F6E6E6563742C2072657475726E20B1
:10194000636F64652025640D0A00000025735F2520
:10195000643A436F6E6E656374656420746F204DE6
:10196000515454207365727665720D0A00000000B0
:1019700002484078012800D00020704785050020EB
:1019800008B52021144800F035FD14A0009012483D
:1019900013A314A24021403801F052F90E4B7022DB
:1019A000403B12A11BA001F03BF90CA000900A489B
:1019B0001FA30CA240218C3801F042F9064B75227E
:1019C0008C3B03F1400009A103601BA001F028F942
:1019D000BDE8084002F012BBF88200203100000090
:1019E0006C65640025732573000000002E2E5C5387
:1019F0006F757263655C4D5154545061636B6574CF
:101A00005C73616D706C65735C7075623073756268
:101A1000312E630025735F25643A4D5154545F5451
:101A20004F5049432069733A2025730D0A00000086
:101A300073656E640000000025735F25643A70755D
:101A4000626C69736820746F7069633A2025730D46
:101A50000A0000002DE9F047C8B0044650A8DDE9AF
:101A6000537690E800070D464FF48071FFF780FF32
:101A700088B18DE80C07CDE905762B46224607A8EC
:101A8000FFF711FE0246084807A9406802F0D1FAA4
:101A900048B0BDE8F0874FF4957204A10DA001F0A5
:101AA000BFF84FF0FF30F3E7A80500202E2E5C535F
:101AB0006F757263655C4D5154545061636B65740E
:101AC0005C73616D706C65735C70756230737562A8
:101AD000312E630025735F25643A4D5154542044E0
:101AE0006973636F6E6E657465640D0A00000000B3
:101AF0002DE9F047DFF85C90002609F10507DFF8D3
:101B000058A00C468046BD1F9AF80000514610B1FF
:101B100000202A7818E02E7099F80010032909D1C6
:101B200099F8010030B9F878052803D9FE70002033
:101B3000BDE8F087142002F0D1FEE5E78318CE5C03
:101B400008F80060401CC0B2A042F7D311192970F8
:101B5000EEE70000850500205480002070B58EB0AF
:101B6000C826294D1BE0294A31462948FFF7ACFC1D
:101B70000446032819D00D2C32D00E2C38D0601C0E
:101B80003AD0234640F2051222A12CA001F048F8D9
:101B9000C8212E48FEF773FB142002F09FFEA868B0
:101BA0000028E0D00EB0204670BDED2219A128A07B
:101BB00001F036F802AB164A08A883E8450009A9E7
:101BC0000AA8CDE900018B1F07AA06A905A8FFF7FF
:101BD000ABFB0023052205A9E86803F033F9D7E73A
:101BE000F6220CA123A001F01BF800202861CFE70A
:101BF000FB2208A126A003E04FF4807205A12AA0D1
:101C000001F00EF8CEE70000940500202D400008FA
:101C1000188300202E2E5C536F757263655C4D51E6
:101C200054545061636B65745C73616D706C657363
:101C30005C70756230737562312E630025735F25A9
:101C4000643A4D5154542025640D0A0054800020FC
:101C500025735F25643A2D2D2D2D2D2D2D2D2D2D08
:101C60005055424C4953482D2D2D2D2D2D2D2D2DC8
:101C70002D0D0A0025735F25643A52656376204D69
:101C80005154542050494E47524553500D0A0000BC
:101C900025735F25643A4D51545420446973636F32
:101CA0006E6E6563740D0A0025735F25643A4D51AD
:101CB000545420446973636F6E6E656374320D0A09
:101CC0000000000030B5BBB00022379235900123F0
:101CD0003692389238A835A90093CDE90110C8256D
:101CE000294603A8FFF731FD0246134803A94068BF
:101CF00002F09FF9114A294603A8FFF7E5FB0446C5
:101D0000092804D00346D4220DA117A00EE003A891
:101D1000CDE9000502AB3AAA012139A8FFF749FB3A
:101D2000029B044623B1CE2205A117A000F078FF44
:101D30003BB0204630BD0000A80500202D40000823
:101D40002E2E5C536F757263655C4D515454506117
:101D5000636B65745C73616D706C65735C707562E8
:101D600030737562312E630025735F25643A4D51DF
:101D700054545F5375627363726962652045727271
:101D80006F722025640D0A0025735F25643A67721F
:101D9000616E74656420716F7320213D20302C20AA
:101DA00025640D0A000000000200084602D010461B
:101DB000FEF782BA7047FEE710B5FFF7E1FDBDE818
:101DC000104000F06FB8000086B01A4E1A4D7078BF
:101DD00001282AD12878002827D0A878401CA8708C
:101DE0004046FEF779FA04460F464046FEF774FA7D
:101DF0008DE89300114813A1037811480278214817
:101E000000F032FFC8211F48CDE90301A0F59A7008
:101E1000002307C88DE807001A4619461846FFF741
:101E200019FE184918A000F0FBFE686802F056FD84
:101E3000CDE700008505002094050020F105002075
:101E4000F00500207B2274656D7065726174757297
:101E500065223A25642C2268756D6964697479225B
:101E60003A25642C226C69676874223A252E316603
:101E70002C227072657373757265223A252E316655
:101E80007D000000E083002073656E6420746F2085
:101E900073657276657220646174612069732025B0
:101EA000730D0A0010B500222021052002F0F0FE7B
:101EB00005490028C86006D14FF4B17203A10DA0F6
:101EC00000F0AEFEFEE710BD940500202E2E5C5300
:101ED0006F757263655C4D5154545061636B6574EA
:101EE0005C73616D706C65735C7075623073756284
:101EF000312E630025735F25643A785175657565E9
:101F00005F4D5154545F52656376204552524F5293
:101F10000D0A00007047000030B50F23C278017829
:101F20000125F2B1144A126801F1E02102F4E062E5
:101F3000C2F5E062120AC2F10404D3404278A24022
:101F400084781C401443220181F80024007800F0BA
:101F50001F018D404009800000F1E020C0F80051D1
:101F600030BD01F01F0085404809800000F1E020ED
:101F7000C0F8805130BD00000CED00E0024908437C
:101F800002490860704700000000FA050CED00E00F
:101F900004480168044A01F4E06111430160BFF3A1
:101FA000408FFEE70CED00E00400FA0570B5002557
:101FB000002105F1B00000F0A9F90021084600F069
:101FC000A5F90021102000F0A1F900240121002032
:101FD00000F09CF9641CE4B2802CF7D36D1CEDB2C8
:101FE000082DE5D370BD2DE9F0471F4690460E46FB
:101FF00082460025DDF8209011E03146504600F081
:10200000B3F8544607E019F8050001216D1C00F0F3
:102010007DF9641CE4B24445F5D3761CF6B2BE42A9
:10202000EBD3BDE8F0870000F8B50121202000F0D7
:102030008BF90420ADF800001026494D8DF803609F
:1020400003248DF8024069462846FEF7B3FF0421B9
:102050002846FFF732F80121082000F075F94FF407
:102060003C45ADF800508DF803608DF802403D4CC2
:1020700069462046FEF79EFF29462046FFF71DF8D9
:10208000C82001F023FB0021AE2000F03FF9002121
:10209000084600F03BF90021102000F037F900213C
:1020A000402000F033F90021B02000F02FF900218A
:1020B000812000F02BF90021FF2000F027F90021FA
:1020C000A12000F023F90021A62000F01FF9002133
:1020D000A82000F01BF900213F2000F017F9002193
:1020E000C82000F013F90021D32000F00FF90021DF
:1020F000084600F00BF90021D52000F007F9002177
:10210000802000F003F90021D82000F0FFF8002122
:10211000052000F0FBF80021D92000F0F7F800219D
:10212000F12000F0F3F80021DA2000F0EFF80021B0
:10213000122000F0EBF80021DB2000F0E7F800218E
:10214000302000F0E3F800218D2000F0DFF80021BE
:10215000142000F0DBF80021AF2000F0D7F8F8BD24
:1021600000140140000C014010B50A46044600214D
:1021700002F1B00000F0CAF8102040EA141000216B
:1021800000F0C4F804F00F00BDE81040002100F09A
:10219000BDB800002DE9F04115460E460746FFF791
:1021A000E3FF0F48002400EB85150121285D00F0B6
:1021B000ADF8641CE4B2102CF7D3761CF1B23846AB
:1021C000FFF7D2FF00242819012190F8200000F029
:1021D0009DF8641CE4B2102CF5D3BDE8F08100003A
:1021E000A00000202DE9F041203A00240F4680464F
:1021F000D5B27F2803D900208F1C8046FFB2102B58
:10220000394610D0FFF7B0FF164905EB450001EB4A
:1022100040050121285D00F079F8641CE4B2062C29
:10222000F7D3BDE8F081FFF79FFF0F4E04EB0510D9
:102230000121305C00F06AF8641CE4B2082CF5D38C
:102240007F1CF9B24046FFF78FFF002404EB051016
:1022500030440121007A00F059F8641CE4B2082CE3
:10226000F4D3DEE760540008885600082DE9F05FDB
:102270000027DDF828A01D4691468B4680463C4647
:102280004FEA5A0623E0281B401EC1B20A2001F083
:10229000BFFBB9FBF0F00A21B0FBF1F201FB120029
:1022A00027B9691E8C4201DA38B101273030C2B239
:1022B00006FB0480C0B2534604E006FB0480C0B2B3
:1022C000534620225946FFF78DFF641CE4B2AC420E
:1022D000D9D3BDE8F09F2DE9F041984617460E4648
:1022E000044600250DE0434631462046FFF77AFFBD
:1022F0000834E4B2782C02D90024B61CF6B26D1C66
:10230000EDB27A5D002AEED1BDE8F081C0B209B12C
:1023100000F06FBC00F056BC044A0029516901D09E
:10232000014300E08143516170470000001002400A
:10233000044A0029D16901D0014300E08143D16101
:102340007047000000100240044A0029916901D042
:10235000014300E08143916170470000001002409A
:1023600030B5204A5168204B11F00C0103D00429EC
:1023700001D0082901D0036012E05168536801F4CC
:1023800070114FF0020413F4803F04EB914102D02E
:1023900053689B0301D5154B00E0134B5943016073
:1023A00051680F2303EA1111114B5C5C0168E14095
:1023B00041605468072505EA14241C5D21FA04F4E1
:1023C0008460546805EAD4241B5DD940C16052681A
:1023D000032303EA9232064B1B1F9A5CB1FBF2F116
:1023E000016130BD0010024000127A0000093D007A
:1023F000180000201CB5064A054C13680834121D4D
:1024000024681268CDE9002402A200F019FC1CBD6A
:10241000E8F7FF1F253038782530387825303878B0
:102420000000000019A000F0FBFB22480821017009
:102430000021417020498020086020A120A001F0E7
:10244000C7FA20B9722223A12BA000F0E9FB194C96
:1024500042F21075641E32A13548FDF71BFF48B1EA
:102460007B221CA133A000F0DBFB41F2883002F09C
:1024700035FA04E0A088411CA180A84201D3FFF7EF
:1024800087FD322002F02AFAE5E700002D2D2D2DE0
:102490002D2D2D2D2D2D2D2D2D2D2D6C6F6E672D70
:1024A0002D2D2D2D2D2D2D2D2D2D2D2D2D2D2D2D5C
:1024B0002D0D0A0085050020100C01404F4B000037
:1024C00041542B4357534D41525453544152543D60
:1024D000320D0A002E2E5C536F757263655C657356
:1024E00070383236365C657370383236365F686104
:1024F0006E646C65722E630025735F25643A5374B5
:1025000061727420736D61727420636F6E666967A7
:1025100020636F6E6669677572650D0A00000000C2
:10252000534D4152542053554343455353000000EB
:102530003C81002025735F25643A736D61727420BD
:10254000636F6E666967206F6B0D0A00082118B112
:10255000012804D1024801E00148001F01607047D2
:10256000140C01400CB5002226480092019201682B
:1025700041F4803101604FF4A063016801F400313F
:1025800001910099491C0091019911B90099994252
:10259000F3D10168890333D5012101911A490A68F1
:1025A00042F010020A600A6822F003020A600A6818
:1025B00042F002020A60416841604168416041683E
:1025C00041F480614160416821F47C1141604168BF
:1025D00041F4E8114160016841F0807101600168D7
:1025E0008901FCD5416821F003014160416841F057
:1025F000020141604168C1F381010229FAD10CBD99
:1026000001920CBD0010024000200240014601A0D2
:1026100000F006BB43617074757265207369676E64
:10262000206E6F3A256420004FF0E02104280869ED
:1026300003D020F004000861704740F00400FAE77E
:1026400010B5FDF7C3FD02F095FD18B104494FF038
:1026500080500860BDE810400020FDF7BEBD0000BE
:1026600004ED00E00F4810B5016841F00101016080
:1026700041680D4A1140416001680C4A11400160F7
:10268000016821F480210160416821F4FE0141606C
:102690004FF41F018160FFF765FF05494FF00060AF
:1026A000086010BD001002400000FFF8FFFFF6FEBA
:1026B00008ED00E070B50B4D40F225542146284648
:1026C00000F0BEF900280BD0284600F047FAC0B24F
:1026D00000F05EF821462846BDE8704000F091B950
:1026E00070BD00000038014030B5044687B00121BC
:1026F0000420FFF729FE01218803FFF725FE4FF490
:102700000071ADF8101018218DF8131003201E4D24
:102710008DF8120004A92846FEF74CFC2815ADF8E8
:10272000100004218DF8131004A92846FEF742FC7E
:1027300000940024ADF808400C20144DADF804407E
:10274000ADF80A00ADF80640ADF80C4069462846E1
:1027500000F0AEF90121284600F059F925218DF845
:10276000141005208DF815008DF8164001208DF805
:10277000170005A8FFF7D0FB012240F2255128469B
:1027800000F07DF907B030BD00080140003801407D
:1027900070B5074D0446C1B2284600F0E3F9802128
:1027A000284600F046F90028F9D0204670BD000008
:1027B000003801402DE9F0472C4D40F224412846D5
:1027C00000F03EF92A4E4FF4807940F2255848B384
:1027D00000213046FEF778FA2888281D0088254F0A
:1027E0003878B8B13846FDF767FD022812D930466F
:1027F000FEF7E8FAC0F58074002087F8FF00034672
:1028000002461D483946006802F08CFB49463846AE
:10281000FDF735FD49468C4205D101224146284647
:1028200000F02DF906E03046FEF7ECFA01213046C3
:10283000FEF74AFA44464146284600F001F90028CE
:1028400012D02146284600F0DCF800222146284616
:1028500000F015F949463046FEF7D4FA3046BDE897
:10286000F0470121FEF730BABDE8F0870044004090
:102870006C000240547F0020F405002070B504462F
:10288000414892B0012102600520FFF75DFD012162
:102890004804FFF74DFD0425ADF83C5002208DF8AB
:1028A0003E001820394E8DF83F000FA93046FEF744
:1028B00081FB0820ADF83C008DF83F500FA9304651
:1028C000FEF778FB0B940024ADF834400C20304D1B
:1028D000ADF83040ADF83600ADF83240ADF83840D4
:1028E0000BA9284600F0E4F84021284600F086F8BD
:1028F000002240F22661284600F0C1F8002240F292
:102900002551284600F0BBF8012240F22441284618
:1029100000F0B5F826208DF840008DF841400121E7
:102920008DF842108DF8431010A8FFF7F5FA012238
:102930004021284600F075F80121284600F067F88C
:1029400001210846FFF7E8FC124D2846FEF7C8F9BA
:102950000F486946001D00900F48CDE90104A815F5
:10296000CDE903048020CDE905044FF44050CDE9C2
:102970000840079428460A94FEF727FA01212846C2
:10298000FEF7A2F912B070BD8C00002000080140D3
:10299000004400406C000240547F00202DE9F041CB
:1029A0000D4606460024084F0AE04021384600F054
:1029B00040F80028F9D0315D384600F0D3F8641CA7
:1029C000AC42F2D3BDE8F081004400402DE9F04173
:1029D0000D4606460024084F0AE04021384600F024
:1029E00028F80028F9D0315D384600F0BBF8641CA7
:1029F000AC42F2D3BDE8F08100440040C9430180FD
:102A000070470A0A01219140C9430180704700299B
:102A1000818902D041F4005101E021F4005181810B
:102A20007047002A828A01D00A4300E08A438282EA
:102A300070470246002012880A4200D001207047E9
:102A400070B501F01F0501260024C1F3421306FAF8
:102A500005F2012B0FD0022B0FD0838A4FEA1121F0
:102A60000088134206FA01F600EA060001D000B120
:102A70000124204670BD8389F0E7038AEEE710B594
:102A8000C1F3421301F01F040121A140012B07D023
:102A9000022B07D01430002A026805D00A4304E054
:102AA0000C30F8E71030F6E78A43026010BD0000F2
:102AB00030B50446008A85B00D464CF6FF710840DB
:102AC000E98801432182A0894EF6F3110840A988C4
:102AD0002A8911436A8902431143A181A08A4FF6D2
:102AE000FF410840A9890143A1826846FFF738FCED
:102AF0001948844201D1039800E00298A189090491
:102B000000EBC00101EB0010296801D5490000E08D
:102B10008900B0FBF1F06422B0FBF2F109010B096E
:102B20006FF018056B4300EB8300A3891D044FF081
:102B3000320306D503EBC000B0FBF2F000F0070053
:102B400005E003EB0010B0FBF2F000F00F000843CB
:102B5000208105B030BD0000003801408088C0F3FE
:102B600008007047C1F3080181807047FEE700004C
:102B70002DE9F041124F04464FF4005631463846D5
:102B8000FEF799FA00254FF4004804F080008028F1
:102B90004146384611D0FEF78EFA6006040E3146E3
:102BA0003846FEF78AFA31463846FEF784FA6D1C3D
:102BB000EDB2082DE9D3BDE8F081FEF77EFAECE72F
:102BC000000C014010B50446FEF7A0FA7820FFF78C
:102BD000CFFFFEF7CBFA0020FFF7CAFFFEF7C6FAD9
:102BE0002046FFF7C5FFFEF7C1FABDE81040FEF72B
:102BF000A7BA10B50446FEF789FA7820FFF7B8FFA8
:102C0000FEF7B4FA4020FFF7B3FFFEF7AFFA204615
:102C1000FFF7AEFFFEF7AAFABDE81040FEF790BA44
:102C20000FB4054B10B503A9044A029800F0F2F85E
:102C300010BC5DF814FB000031370008FC050020D3
:102C40000FB41CB50A46521ECDE9000207A9054B78
:102C50006A46069800F0DEF8009A002111701CBC4C
:102C60005DF814FB433500080FB4084B10B504A9F8
:102C700002AA039800F0CEF8044602A9002000F052
:102C80006BFC204610BC5DF814FB000059350008B1
:102C900002E008C8121F08C1002AFAD17047704725
:102CA000002001E001C1121F002AFBD17047000083
:102CB0002DE9FF5FDDE90220010DDDF838B00243A8
:102CC00018D044F61050A1F2FF3141430D140F9873
:102CD000012820D0A5EB0B00401C5FEA000A4FF052
:102CE0000004474EDFF81C91A046504616D5CAF1A5
:102CF000000728E00F98012443A2012808D00021F2
:102D000000980F9BC0E90021C0E90243BDE8FF9F86
:102D10006FEA0B01F4E7CBF10000DEE7074612E0B3
:102D2000F80707D02246334640464946FDF7D5FB13
:102D3000804689462246334610461946FDF7CDFBAC
:102D400004460E467F10002FEAD1DDE90201BAF1F8
:102D5000000F42464B4602DAFDF7BFFB01E0FDF7EC
:102D60002EFC04460E460022284BFDF7AFFC03D88C
:102D70004FF0FF30014607E00022254B2046314648
:102D8000FDF704FBFDF78AFC102409E0002C0ADBA8
:102D90000A220023FDF7C9FA019B30321A55641E3E
:102DA00050EA0102F2D1641C019AC4F111031444E7
:102DB0000F9A012A03D0012208430DD10AE00843EB
:102DC00004D000204FF0110B0F9080E7A3EB0B0510
:102DD0006D1E0DE05B4504DD4FF0000205F10105BD
:102DE00004E003DA4FF00002A5F10105002AECD05F
:102DF00000980F99C0E90231C0E9004586E700005C
:102E0000000024400000F03F300000000000F043CC
:102E10000000E03F2DE9FF4F95B09B4689460646EE
:102E200000250FE2252877D100242746F84A012102
:102E3000059400E0044316F8013F203B01FA03F03B
:102E40001042F7D130782A2811D06FF02F03307854
:102E5000A0F13002092A16D8059A44F0020402EBC8
:102E6000820203EB42021044761C0590EFE759F80A
:102E7000042B0592002A03DA504244F400540590D2
:102E800044F00204761C30782E2816D116F8010F73
:102E900044F004042A280DD06FF02F023078A0F1FE
:102EA0003003092B09D807EB870302EB4303C7184C
:102EB000761CF3E759F8047B761C30786C280FD029
:102EC00006DC4C2817D068280DD06A2814D104E0FD
:102ED000742810D07A280FD10DE044F400140AE0D1
:102EE00044F4801401E044F440147278824202D128
:102EF00004F58014761C761C307866280BD013DC21
:102F0000582877D009DC002875D04528F6D0462807
:102F1000F4D047281AD19DE118E0632835D0642801
:102F200079D0652812D195E1702873D008DC672824
:102F3000F1D069286FD06E280DD06F2806D1B5E08A
:102F400073282CD0752875D0782874D05A461799D4
:102F500090476D1C75E1C4F30250022809D0032884
:102F60000DD0D9F8001004280DD00D6009F1040926
:102F700067E1D9F80010EA17C1E90052F6E7D9F87D
:102F800000100D80F2E70D70F0E719F8041B8DF8C2
:102F9000001000208DF80100EA46012003E059F8F6
:102FA00004AB4FF0FF3061074FF0000102D40DE099
:102FB00008F101018846B9420FDA8045F8DB1AF8BA
:102FC00008100029F4D108E008F101018846814287
:102FD000FADB1AF808100029F6D105985B46A0EB39
:102FE000080721463846179A00F094FA284400EB67
:102FF000080507E04DE029E10DE01AF8010B5A46FB
:1030000017999047B8F10108F7D25B462146384638
:10301000179A13E142E00A220092C4F302524FF0E1
:10302000000A022A08D059F804CB032A4FEAEC71AF
:103030000AD00DE029E02AE009F1070121F007029A
:10304000F2E802C1914609E00FFA8CFC4FEAEC71FC
:10305000042A03D14FFA8CFC4FEAEC71002907DAFD
:103060000A460021DCF1000C61EB02012D2202E096
:10307000220504D52B228DF80420012203E0E2076B
:1030800001D02022F7E7904659E00A2102E0102201
:103090000DE010214FF0000A00910BE010224FF0DC
:1030A000000A44F004040827009203E008224FF0CD
:1030B000000A0092C4F30252022A05D059F804CB48
:1030C0000021032A08D009E009F1070121F00702D5
:1030D000F2E802C1914605E01FFA8CFC042A01D1F6
:1030E0000CF0FF0C4FF00008220728D5702806D0FE
:1030F000009B83F0100353EA0A0305D00EE0402240
:103100008DF80420012208E05CEA010206D030229A
:103110008DF804208DF8050002229046009B83F074
:10312000080353EA0A030AD15CEA010201D16207EB
:1031300005D530228DF804204FF001087F1E582855
:1031400004D034A003900EA802900DE036A0F9E759
:1031500053466046009AFDF7E8F884460398825C7F
:103160000298401E029002705CEA0100F0D10298C1
:1031700006A9081A00F1200A600702D524F4803459
:1031800000E00127574502DDA7EB0A0000E0002020
:1031900000EB0A01009005984144401A0590E003B5
:1031A00006D45B462146179A059800F0B3F905440A
:1031B000002706E001A85A46C05D179990476D1C8C
:1031C0007F1C4745F6DBE0030CD55B462146179A8A
:1031D000059800F09FF9054404E030205A461799FD
:1031E00090476D1C0099481E00900029F5DC08E00E
:1031F000029802995A460078491C02911799904703
:103200006D1CBAF10001AAF1010AF1DC65E10000D0
:1032100009280100303132333435363738396162AC
:103220006364656600000000303132333435363770
:1032300038394142434445460000000000F058F947
:103240000544761C307800287FF4ECAD19B0284690
:10325000BDE8F08F620700D4062709F1070222F0CB
:10326000070CFCE80223E14603F000485FEA080C83
:1032700002D00FF2702C0DE05FEA045C02D50FF271
:10328000682C07E05FEAC47C02D00FF2602C01E0FA
:10329000AFF2700C4FF0FF3823F00043CDF850C070
:1032A00065280CD006DC452809D046281DD04728C3
:1032B0003DD13DE0662818D067287ED138E0002156
:1032C000112F01DB112000E0781CCDE9000106A9D7
:1032D0000EA8FFF7EDFCDDE90F010E9A0391002126
:1032E000009207F1010A04914DE04FF00040009771
:1032F000CDE9011006A90EA8FFF7DAFCDDE90F02FF
:1033000003920E9B11990022DDF80CA00093049209
:1033100011B9791C00EB010AB7EB0A0004D4C0F123
:10332000FF3007F1010A0490AAEB0700019044E086
:10333000012F00DA01270021112F01DD112000E00B
:103340003846CDE9000106A90EA8FFF7B1FCDDE97A
:103350000F010E9A0391002104910092BA462107B1
:103360000CD40399514500DA8A46BAF1010F05DD04
:10337000009AAAF10101515C302908D0B84202DA62
:1033800010F1040F06DA0121CDE9011015E0AAF1D0
:103390000101E9E7002805DC049901440491AAEB46
:1033A000000102E0411C514500DD8A460499401AA3
:1033B000401C01904FF000400290200704D4019877
:1033C000504501DBCDF8048000208DF84F000298B5
:1033D0000DF14F07B0F1004F25D02B200E90029831
:1033E0004FF0020800280CDA404202902D200E9087
:1033F00007E00A210298FCF782FF3031029007F8BB
:10340000011DB8F10001A8F10108F2DC02980028C2
:10341000EFD1791E0E980870307800F0200040F04F
:10342000450007F8020D12A8C01B00F10708149808
:10343000007800B1012000EB0A01019801EBE07176
:1034400005984144401A401E0590E00306D45B46AF
:103450002146179A059800F05DF805441498007805
:1034600018B15A46179990476D1CE00324D55B4666
:103470002146179A059800F04DF805441CE0049881
:10348000002807DBDDE90301884203DD0098405C8A
:10349000179901E0179930205A469047049805F192
:1034A0000105401C04900198401E019004D12E207B
:1034B0005A46179990476D1CBAF10001AAF1010A0A
:1034C000DDDC05E017F8010B5A46179990476D1C93
:1034D000B8F10001A8F10108F4DC5B462146179A17
:1034E0000598ABE62D0000002B0000002000000036
:1034F0002DE9F041044600251E461746880404D4F1
:1035000005E039462020B0476D1C641EF9D52846D9
:10351000BDE8F0812DE9F041044600251E469046A5
:10352000C80301D5302700E02027880404D505E032
:1035300041463846B0476D1C641EF9D52846BDE8A3
:10354000F0814A68002A06D00A68531C0B6010708C
:103550004868401E486070470A68531C0B60107032
:10356000704700000648016841F08071016005481D
:1035700000214160016841F00101016070470000D5
:10358000FCED00E0001000E030B50022054C05E045
:103590002368521C13F8015B057023608A42F7DB35
:1035A000084630BD9005002010B504490420FCF702
:1035B0002DFE03490120886010BD00000D26000883
:1035C0009405002010B5FF241AA11BA000F000FAFA
:1035D00030B11DA11F48FCF75DFE40B3062427E073
:1035E0001DA11C48FCF756FE08B102241BE01DA1DA
:1035F0001848FCF74FFE10B10324012014E01CA171
:103600001448FCF747FE08B104240CE01BA1114844
:10361000FCF740FE08B105240AE01BA10D48FCF7A9
:1036200039FE0028F0D10020FEF790FF00E00724CB
:10363000204610BD4F4B000041542B43495053547A
:10364000415455530D0A00006275737920732E2E74
:103650002E0000003C8100205354415455533A320F
:10366000000000005354415455533A330000000009
:103670005354415455533A340000000053544154BC
:1036800055533A3500000000434C4F5345000000AD
:1036900010B56FF00400FEF7C7FF0948094900683C
:1036A000B0FBF1F00849C0B200EB40020870C2EB79
:1036B000C0104FF6FF7202EAC000488010BD000043
:1036C0000000002000127A00F80500200B4949880C
:1036D00048434FF0E021486100238B61086940F0C6
:1036E000010008610869C20701D0C003FAD5086962
:1036F00020F0010008618B6170470000F805002090
:1037000070B50A4C0546616EFCF7C4FD08B1002097
:103710006066642229460548FCF798FDBDE87040C4
:103720000248C8216830FCF7AABD00003C81002097
:10373000FFF72EB810B5FDF7B3F9012807D0BDE8A3
:1037400010404FF4CB720AA112A0FFF769BA1A49D0
:10375000032000240870481D40F291120470447048
:10376000847003A115A0FFF75BFA1C48047010BD1C
:103770002E2E5C536F757263655C657370383236DC
:10378000365C657370383236365F68616E646C65BE
:10379000722E630025735F25643A636F6E6E6563F6
:1037A00074205443502073657276657220466169B7
:1037B0006C0D0A0D0A0000008505002025735F25A9
:1037C000643A636F6E6E6563742054435020736572
:1037D00072766572204F4B0D0A0D0A009505002088
:1037E0002DE9FF41FFF754FFFDF7D6F9FDF752F839
:1037F000FEF71AFCFEF7DAFB002211462420FEF742
:10380000C9FC012200213620FEF7C4FC022200215F
:103810004820FEF7BFFC032211460020FEF7BAFC49
:10382000042203211020FEF7B5FC052203214220CB
:10383000FEF7B0FC042203215220FEF7ABFC10235C
:103840003CA206210020FEF746FD3B488021016096
:10385000102101602021016008250560374C2B46AE
:103860002E2206211E200094FEF7BDFB08234222D3
:10387000062132200094FEF7B6FB082356220621CB
:1038800046200094FEF7AFFB08236A2206215A2047
:103890000094FEF7A8FB00228021012001F0F8F936
:1038A0002749002423464860CDE900540294802231
:1038B00024A12948039401F08BFB0720CDE90004E3
:1038C00002940023802225A12948039401F080FB63
:1038D0000626CDE900646F01029400233A4625A133
:1038E0002948039401F074FB0520CDE900040294FB
:1038F0000023802225A12A48039401F069FBCDE929
:103900000054029400233A4626A12A48039401F069
:103910005FFBCDE9006402940023802226A12B489E
:10392000039401F055FB01F0FFF804B00020BDE85E
:10393000F08100004C454400100C0140D0050020EF
:10394000F005002076416E616C7973697355617280
:103950007444617461000000194100087645737079
:10396000383236365F4D61696E5F5461736B0000AB
:1039700051420008764D5154545F48616E646C6545
:10398000725F5461736B0000DD440008764D515442
:10399000545F5265636976655F5461736B00000024
:1039A000214600084D7174745472616E6D697454CF
:1039B00061736B00C91D000876436F6C6C6563749E
:1039C00053656E736F725461736B0000154200088B
:1039D00070B50E460546C824FCF76EFC0146284625
:1039E000FEF7DCFF094D6E665EB102E00A2000F0D2
:1039F00075FF686E20B1641E14F0FF04F6D102E07A
:103A00000CB1002070BD012070BD00003C81002081
:103A10000346012000E05843491EC9B2FBD270475B
:103A200070B50B4D044628684460E86829688442F4
:103A300005D2686BBDE87040091D00F02BBD286BF6
:103A4000091D00F027FDA86A844200D2AC6270BD57
:103A50004400002010B500F0D7FE0C4C206880B95F
:103A60000B4800F009FD0A48143000F005FD084835
:103A7000A0601430E06000220C21042001F008F95D
:103A80002060BDE8104000F0CDBE00007C000020AA
:103A90002C7F002070B5134E134D1FE001F06CF821
:103AA000306820B1002401F029FCBCB901E00124F8
:103AB000F9E700F0A9FEF068C468201D00F0CDFA17
:103AC000A868401EA8606868401E686000F0AAFEF2
:103AD000206B00F0B1FE204600F0AEFE68680028C2
:103AE000DCD170BD047F00204400002030B4026CA3
:103AF0000B46002A0BD0C1681144C1604468A14242
:103B000001D30168C16030BC1846FCF79FBB30BCD4
:103B1000704770B51646026C0446002582B1C6B1E6
:103B2000E068FCF793FBE168206C091AE160226809
:103B3000914202D26168081AE060022E16D01AE0A3
:103B40002068C0B9606801F06FFB05460020606026
:103B500011E0A068FCF77AFB216CA0680844A06023
:103B60006168884207D32068A06004E0A06B10B1B0
:103B7000A06B401EA063A06B401CA063284670BDD4
:103B8000044CFFF787FF20680128FAD900F07CFE7B
:103B9000F7E70000007E002070B5002441600B4D67
:103BA0000061914206D8D11A8269914206D2011D64
:103BB000E86807E09A4203D2994201D3012403E066
:103BC000011DA86800F066FC204670BD7C00002046
:103BD0002DE9F04781460B680020002B3BD04B6855
:103BE00001F108065B684B60B34201D15C684C6030
:103BF0004B684FF0000ADF684B685B684B60B3426C
:103C000001D15C684C604B6809EB4015DB6803F13F
:103C10003404C5E900345C6CAC602A73DC6A2C6146
:103C2000032A03D19C6A0CB102242C73DC6CC5E915
:103C3000054A1C6B4FF0000C02E0641C0CF1010CF7
:103C400094F80080B8F1A50FF7D04FEA9C04401C0F
:103C5000AC83BB42D0D1BDE8F087000030B585B061
:103C6000234D3BE00198002838DB039C606910B1CC
:103C7000201D00F0F2F904A800F096F80246019821
:103C80000A282BD2DFE800F00505052A1F270505C5
:103C90002A1F0298A169034601442046FFF77CFFD2
:103CA00001281BD1616A20468847E069012815D1A7
:103CB000002000900298A16900234218194620466E
:103CC00001F0AAFB0AE00298A06181181346204681
:103CD000FFF762FF02E0204600F0AEFD00231A4627
:103CE00001A9286800F0F8FF0028BBD105B030BD5D
:103CF0007C0000202DE9FC410E46054600F03CFF0B
:103D000001A800F051F80446019818B101F0F6FA44
:103D1000BDE8FC811B4F7EB1F868006878B30026CF
:103D2000291B3246386800F0BBFD01F0E7FA002895
:103D3000EED100F0A9FDEBE7A542F1D801F0DEFAE3
:103D4000B8682646C068C468201D00F086F9E0699E
:103D5000012810D1A0692B46411932462046FFF7B1
:103D60001BFF012807D100200346014600902A4688
:103D7000204601F051FB616A20468847C8E7FFE70B
:103D80000126CDE77C0000200648016B096829B1B7
:103D9000016BC968C9684968816270474FF0FF319B
:103DA000FAE700004400002070B5054601F0DCF998
:103DB000064E04467068844203D200F009F80120E0
:103DC00000E0002028602046746070BD7C00002068
:103DD000F8B5144E1EE0C068C4680568201D00F0E8
:103DE0003CF9616A20468847E069012812D1A06940
:103DF0002844A84206D924616060211DB06800F003
:103E000049FB07E000200346014600902A46204671
:103E100001F002FBB06801680029DCD1F168C6E955
:103E20000210F8BD7C000020FCF7D0F9FEE700008E
:103E3000084CA068016839B1002139B10020FFF7B2
:103E400059FFFFF70BFFF4E70121F6E7C0680068B0
:103E5000F5E700007C00002070B5044600F0D4FCBB
:103E600004F124050AE0606A58B1284601F014FA0A
:103E700008B100F0B9FDA06C401EA064A06C002841
:103E8000F1DC4FF0FF35A56400F0CCFC00F0BCFC89
:103E900004F110060AE0206958B1304601F0FCF93F
:103EA00008B100F0A1FD606C401E6064606C0028E9
:103EB000F1DC6564BDE8704000F0B4BC2DE9F04170
:103EC0000446002500F058FE274E06F108017068F0
:103ED00001F1080368B92548002720F00700C1E96F
:103EE000000747F2F872C3E90072C0E9003201200E
:103EF00070603CB10834600704D004F00700C0F1E2
:103F000008000444601E47F2F772904227D2164A16
:103F10000968083201E00A4601464868A04202D218
:103F200008680028F7D1994219D015680868106010
:103F300048680835001B10280DD90B1958600A482D
:103F40004C6008305C6800E0104602685768A74281
:103F5000FAD31A60036048683168081A306001F0CB
:103F6000CDF92846BDE8F081280000200806002091
:103F70000449086818B10868026D521C0265086897
:103F8000704700004400002010B5031F4FF08074FC
:103F90001C601B1F1960191F024B0B60143940383D
:103FA0000A6010BD293E0008016811F8012B01606C
:103FB0001046704701684A7811F8023B016002EB35
:103FC000032210467047F0B5054608680026101A0F
:103FD00017460C4601280CDD0846FFF7EBFF68602A
:103FE00021680A18BA4204D8A96021680126084449
:103FF0002060002028603046F0BD000010B5054963
:104000000420FCF703F9BDE8104002490620FCF744
:10401000FDB80000A93500080349002049780129AE
:1040200000D10120704700008505002089B2FDF70E
:104030005FBD70B514460D460646FCF777FF30B1FC
:10404000A2B229463046BDE87040FCF779BF002097
:10405000FFF7E2FF4FF0FF3070BDD0E90132016998
:104060009A60D0E901235A604A68824201D182688D
:104070004A60002202610868401E08607047000024
:104080002DE9F04717460A46064600240A2500F0A7
:1040900073FDDFF87880D8F80800824230D3DFF86B
:1040A00070906D1E05EB850109EB810106EB441054
:1040B0000122FFF78DFD0444002DF2D106EB4410E0
:1040C00002224546D8F83010FFF782FD044406EB83
:1040D00044100222696BFFF77BFD044406EB441099
:1040E00004220C49FFF774FD0A49044406EB44100E
:1040F00003221431FFF76CFD04440FB10020386037
:1041000001F0FCF82046BDE8F087000044000020E4
:10411000007E0020047F00202DE9F041224E234D37
:104120004FF0FF3700233A462149306800F0D4FDB4
:10413000012804D0BDE8F0411EA0FEF771BD21A109
:104140001B48FCF7A7F850B10420287000206870C5
:1041500040F26D121DA126A0FEF762FD1BE029A111
:104160001348FCF797F80028114812D027A1FCF754
:1041700091F804000FD0C8212548FCF780F8C82228
:10418000611C2348FCF762F8C8210948FCF777F85E
:1041900001E0FFF7B5FAC8210548FCF770F81420D4
:1041A00000F09CFBBEE70000F40500208505002020
:1041B000A4810020706420213D2070645452554534
:1041C0000D0A0000434C4F53454400002E2E5C5313
:1041D0006F757263655C657370383236365C657313
:1041E00070383236365F68616E646C65722E6300BB
:1041F00025735F25643A54435020434C4F53454444
:10420000210D0A002B495044000000003A00000034
:104210005480002008B50D4C10254FF4FA760B4958
:10422000491C481EFCF709FD0323009562781946D6
:104230006420FEF71BF803230095227819461E2000
:10424000FEF714F8304600F049FBE8E7F0050020DF
:1042500008B520213F48FEF7CDF840F6B83738467C
:1042600000F03CFB3C4C651FFFF7ACF928700828B8
:1042700050D2DFE800F04F4F154F04183D4620782C
:1042800040F2B912401C20700020687033A13CA09D
:10429000FEF7C6FC384600F021FB2878082839D004
:1042A000FFF748FA36E0607840F2C312401C6070B5
:1042B0002AA139A0FEF7B4FC0020FEF747F93CA183
:1042C0003CA0FFF785FB4FF47A763046FCF7A6FD5D
:1042D0003046FCF7A3FD3046FCF7A0FD3046FCF766
:1042E0009DFD3046FCF79AFD3046FCF797FD11E046
:1042F000184B40F2D312203318A131A0FEF790FCE6
:1043000008E0A07840F2D712401CA07013A130A0A2
:10431000FEF786FC687810B9E178491CE1702178D5
:104320000A2908D861780A2905D8A1780A2902D86B
:10433000E1780A2901D9FDF72BFE00902B784FF484
:10434000F47206A12AA0FEF76BFC4FF4FA6000F0AD
:10435000C5FA89E71C8100208A0500202E2E5C53B7
:104360006F757263655C657370383236365C657381
:1043700070383236365F68616E646C65722E630029
:1043800025735F25643A54435020434C4F534545B1
:10439000440D0A0D0A00000025735F25643A455359
:1043A0005038323636204C6F73740D0A0D0A0000F7
:1043B0004F4B000041542B5253540D0A0000000093
:1043C00025735F25643A2D2D25730D0A000000002A
:1043D00025735F25643A5553415254322073656EFC
:1043E000642074696D654F7574210D0A000000002A
:1043F00025735F25643A6573705F68775F737461D6
:104400007475735F653D25642C6573705F6E6574AC
:104410005F776F726B5F653D25640D0A00000000D9
:1044200010B501210648FCF73FFE002807D005A083
:10443000FEF7F6FB06488068BDE81040004710BD57
:104440000008014073686F72744B6579310D0A0082
:104450009000002010B501210548FCF725FE00283A
:1044600004D10448C068BDE81040004710BD0000FA
:10447000000801409000002000F108014FF0FF32D9
:10448000C0E90112C1600161002101607047002193
:104490000161704730B50C68621C02D000F108025F
:1044A00002E0026904E01A4653681D68A542FAD981
:1044B00053684B6099608A60516008610168491CCB
:1044C000016030BD42684A6093688B6093685960B0
:1044D000916008610168491C016070472A4F2B4CAC
:1044E0002B4D0126607830B1012812D0022823D04C
:1044F000032843D136E0FDF75FFCC8212548FBF7D0
:10450000BEFE66700020207040F2791222A12CA01D
:1045100032E0287803280BD100F026FE3860FDF742
:1045200071F9401C02D06E7002200EE0C82027E016
:10453000C82000F0D3F921E000F016FE38602748CB
:10454000FDF7C0FB401C06D003206070C821114855
:10455000FBF795FEECE74FF4CF720FA120A0FEF71A
:104560005FFBE5E72670FDF7F9FA6878012805D0CA
:1045700040F2A91208A122A0FEF752FB4FF47A7074
:1045800000F0ACF9AEE700008005002094050020A3
:1045900085050020548000202E2E5C536F757263B9
:1045A000655C4D5154545061636B65745C73616D0F
:1045B000706C65735C70756230737562312E630068
:1045C00025735F25643A6D7174742073617475731B
:1045D0002069732069646C650D0A0000B8820020B0
:1045E00025735F25643A4D515454205375627363AB
:1045F00072696265204572726F720D0A00000000D8
:1046000025735F25643A6D71747420636F6E6E65F7
:104610006374206973206661696C65640D0A00002B
:10462000A2B0DFF88491614F4FF0800BA9F1040A2A
:1046300001AE07F120085D4800231C3814221AA996
:10464000C06800F049FB00287ED0642101A8FBF778
:1046500016FEDDE91D210024254601A8FBF7F6FD25
:1046600040F2C31252A15CA0FEF7DAFA09E0305D15
:10467000009023464FF4E3724DA15DA0FEF7D0FAFF
:10468000641C1D98A042F2DC9DF806006E287DD1C6
:104690009DF8070075287FD19DF808006D287BD113
:1046A0009DF80C00312819D17419E07C312808D10B
:1046B000C9F800B008232E2206211E200097FDF71E
:1046C00092FCE07C302809D1CAF800B008232E22E1
:1046D00006211E20CDF80080FDF785FC9DF80C001A
:1046E00032281BD17419E07C312809D12020C9F867
:1046F000000008234222062132200097FDF773FCB8
:10470000E07C30280AD12020CAF800000823422289
:1047100006213220CDF80080FDF765FC9DF80C00E5
:1047200034281DD17419E07C312809D11020C9F832
:10473000000008235622062146200097FDF753FC6F
:10474000E07C30280CD100E02AE01020CAF80000FC
:104750000823562206214620CDF80080FDF743FCB1
:104760009DF80C00332817D17419E07C312806D14C
:1047700008236A2206215A200097FDF734FCE07CCA
:10478000302809D108236A22062100E004E05A20DB
:10479000CDF80080FDF727FC642101A8FBF76FFD31
:1047A000142000F09BF846E7140C0140B0050020EF
:1047B0002E2E5C536F757263655C4D51545450617D
:1047C000636B65745C73616D706C65735C7075624E
:1047D00030737562312E630025735F25643A6D7105
:1047E0007474207265637620646174613A0D0A0006
:1047F00025735F25643A627566665B25645D203DBE
:104800002025630D0A00000010B5FBF7DFFC04480B
:104810000168491CBFF34F8FBFF36F8F016010BD5C
:104820004000002003490868401E086001D1FBF7E2
:10483000D4BC70474000002010B5002817D0A0F16C
:10484000080400F099F90A49606800E011460A6816
:1048500053688342FAD3064822600C6008386168C6
:10486000026811440160BDE8104000F047BD10BD72
:10487000300000204FF0E020024941610721016132
:10488000704700003F19010004494FF08050086054
:10489000BFF34F8FBFF36F8F7047000004ED00E050
:1048A00070B515460E460446FFF7AEFF616C00205A
:1048B000491C00D16064A16C491C00D1A064FFF7C1
:1048C000B1FFA06B28B92A46314604F1240000F05C
:1048D000B9F82046BDE87040FFF7BEBA70B50200D7
:1048E00018D000F049F90E4CE06885182068001DCA
:1048F000FFF7B3FB38B9206890F82C1001208840EE
:104900002169814321612846FFF78AF800F0F6FC0F
:10491000002803D1BDE87040FFF7B6BF70BD0000AE
:10492000440000202DE9FF41002705460770294873
:104930008168029180684001FFF7C0FA060047D005
:1049400000220299FFF79CFBCDE90207384636E0CA
:1049500006EB4011087B01280FD002280FD0032856
:104960000FD004280FD0002449682846FBF7ABFC81
:104970002846FBF7A1FC202109E05224F4E7422459
:10498000F2E75324F0E74424EEE72954401C0F28B3
:10499000FBD32F540544039806EB40108268818BAB
:1049A000CDE90012036922460BA12846FEF75CF907
:1049B0002846FBF781FC05440398401C03900299AC
:1049C0008842C5D304B03046BDE8F041FFF734BF9C
:1049D000BDE8FF81440000200925630925750925EC
:1049E000750925750D0A000001490120C86170474D
:1049F0004400002070B5114C0D4621681831FFF7B6
:104A000049FD2068001DFFF728FB38B9206890F8A1
:104A10002C1001208840216981432161681C05D048
:104A2000E0682844BDE87040FEF7FABF2168BDE8A1
:104A300070400348091DFFF745BD000044000020F9
:104A4000187F002070B5114C0E46154621681831AC
:104A5000FFF738FD2068001DFFF7FFFA38B920681E
:104A600090F82C1001208840216981432161012D9B
:104A700005D0E0683044BDE87040FEF7D1BF216842
:104A8000BDE870400248091DFFF71CBD440000202E
:104A9000187F002070B5040039D01D4DE06A2968E8
:104AA000C96A884233D2A069002804DB2868C06A3A
:104AB000C0F10A00A061E06A164E00EB8000616957
:104AC00006EB800081421FD1201DFFF7C6FA0121AD
:104AD00050B9E06A00EB800256F8222022B92A6918
:104AE00001FA00F082432A612868C06AE0622A69FC
:104AF00081401143296100EB800006EB8000211DFD
:104B0000BDE87040FFF7DEBC2868C06AE06270BD97
:104B100044000020007E002002490A6A0260C96841
:104B200041607047440000201FB5002400940194A8
:104B30000294234660220CA10D48039400F048FA29
:104B400001280FD100F048FC01280BD1FBF73EFBF8
:104B50000848611E816201214161C460BDE81F40B7
:104B600000F07EB81FBD000049444C450000000025
:104B7000813B0008440000200248C16A491CC16210
:104B800070470000440000200E4AD06A10B1012096
:104B9000D06170470020D06110690B49B0FA80F0F5
:104BA000C0F11F0000EB800001EB800000F1080362
:104BB000416849684160994201D149684160C868CB
:104BC0001060704744000020007E002070B504464D
:104BD0000D460846FBF770FB06460146204600F0EE
:104BE0000FF8324629462068FBF730FB2068304436
:104BF000206070BD026811700168491C0160704737
:104C000010B5CA17046801EB12631A0A2270026811
:104C1000521C026011700168491C016010BD70B522
:104C2000141E1E4605460BDD1146FFF7E9FF22461E
:104C300031462868FBF70AFB28682044286070BDCD
:104C400019B1BDE87040FFF7C1BFBDE87040002159
:104C5000FFF7D6BF01480068704700002800002019
:104C6000094810B5016841F47F010160016841F015
:104C70007F410160FFF7FEFD044900200860FBF75B
:104C800073FA002010BD000020ED00E0400000207D
:104C90002DE9F04190460D0006464FF0000717D071
:104CA00006FB05F0401C5430FFF708F904000CD057
:104CB00085B104F154002060C4E90F65012120464C
:104CC00000F090F884F8508027463846BDE8F0811F
:104CD0000020E8E72460EFE72DE9FF43002683B0DA
:104CE0009846894604463746FFF78EFDA06B48B3C9
:104CF00049462046E568FEF7F9FEB8F1000F0FD0EF
:104D0000E560606A30B104F1240000F0C5FA08B132
:104D1000FFF7BAFDFFF786FD012007B0BDE8F0837D
:104D2000A06B401EA063206810B9FFF721F96060F6
:104D300020690028EED004F1100000F0ADFA01283F
:104D4000E6D0E7E7059808B11EB106E0FFF76AFD77
:104D50001DE06846FFF7E0FE0126FFF763FDFFF761
:104D60000BFFFFF751FD606C401C00D16764A06C25
:104D7000401C00D1A764FFF755FD05A9684600F067
:104D800003F930B12046FFF767F800F0B7FA0020CA
:104D9000C3E7FFF739FDA06B30B10025FFF742FDF7
:104DA000D5B1206810B108E00125F7E7FFF72CFD29
:104DB0006068FFF76FFEFFF735FD04F124000599E9
:104DC000FFF718FE2046FFF747F800F097FA002893
:104DD0008AD1FFF759FD87E72046FFF73DF800F03D
:104DE0008DFA81E770B50D460446FFF70DFDD4E955
:104DF0000F12206801FB020060600020A0632068A1
:104E0000A0600146E06B401E00FB0210E0604FF026
:104E1000FF306064A06404F110004DB1FFF72CFB7B
:104E200004F12400FFF728FBFFF7FCFC012070BD14
:104E300021690029F8D000F02FFA0128F4D1FFF7FA
:104E400023FDF1E72DE9FF43002683B0984689460C
:104E500004463746FFF7D8FCA06BE16B884206D3C7
:104E6000B8F1020F03D00598C0B1D6B11DE042469B
:104E700049462046FEF74DFE616A31B104F1240037
:104E800000F00AFA012801D002E008B1FFF7FCFCAB
:104E9000FFF7C8FC012007B0BDE8F083FFF7C2FCB4
:104EA0001DE06846FFF738FE0126FFF7BBFCFFF761
:104EB00063FEFFF7A9FC606C401C00D16764A06C26
:104EC000401C00D1A764FFF7ADFC05A9684600F0BF
:104ED0005BF830B12046FEF7BFFF00F00FFA00206C
:104EE000D9E7FFF791FCA06BE16B884201D1012566
:104EF00000E00025FFF796FC75B104F1100005995C
:104F0000FFF778FD2046FEF7A7FF00F0F7F900282D
:104F1000A0D1FFF7B9FC9DE72046FEF79DFF00F00A
:104F2000EDF997E72DE9F0411F46154688460446FE
:104F3000FBF74CF90646A06BE16B884208D3022FC1
:104F400006D000243046FBF748F92046BDE8F08142
:104F50003A4641462046FEF7DCFDA06C401C04D0DA
:104F6000A06C401CA0640124ECE7606A0028FAD021
:104F700004F1240000F090F90028F4D0002DF2D0C4
:104F800001202860EFE7000070B50D460446FFF7EA
:104F90003BFC0E49CA682868431C0FD02368096A85
:104FA0008B4202D0616891420AD96168511A8142EC
:104FB00006D2401A28602046FFF7AEFD002400E02C
:104FC0000124FFF72FFC204670BD000044000020A4
:104FD0002DE9FF5F8A46DDE90F9091000E9E9B460A
:104FE0001546884610B90846FEF768FF07000FD03F
:104FF0005C20FEF763FF040006D0A5224146384638
:105000002763FBF735F904E03846FFF715FC00E0AD
:105010000024002C7ED06FF0030000EB8500216B94
:105020003546084420F007085146002022180B5C42
:1050300082F834300A5C12B1401C1028F6D30027E5
:1050400084F843700A2D00D30925E562C4E913579B
:10505000201DFFF71CFA04F11800FFF718FA24616D
:10506000C5F10A016462A161676584F858705A4607
:1050700040460099FEF788FF2060B9F1000F01D08B
:10508000C9F80040FFF7C0FB2D4FB868401CB8605E
:105090003868DFF8B08010B1786938B32BE03C6035
:1050A000B868012827D1002505EB850108EB8100B0
:1050B000FFF7E2F96D1C0A2DF6D32248C830FFF73E
:1050C000DBF92048DC30FFF7D7F91E48F030FFF756
:1050D000D3F91D48FFF7D0F91B481430FFF7CCF97E
:1050E00019483C3838631430786304E03868C06A83
:1050F000B04200D83C60786A0121401C786260644C
:10510000E06A3A6981401143396100EB800108EBA4
:10511000810000E011E0211DFFF7D4F90124FFF721
:1051200081FB786928B13868C06AB04201D2FFF7C4
:10513000ABFB04B02046BDE8F09F4FF0FF34F8E72A
:1051400044000020007E0020047F002005484169C3
:1051500019B1C06A18B100207047012070470220C1
:1051600070470000440000200148C06870470000FC
:10517000440000202DE9F041294F0025F86A40B194
:10518000B869401CB861F86900B101252846BDE83E
:10519000F081F868401CF860FE6846B9386B796B9E
:1051A00039637863386A401C3862FEF7EDFDB86AEF
:1051B000DFF87080864209D3386B006880B1386BA5
:1051C000C068C468606886420DD2B8623868C06A38
:1051D00000EB800158F821000128D4D90125D2E73D
:1051E0004FF0FF30F1E7201DFEF737FFA06A18B13E
:1051F00004F11800FEF731FFE06A01213A698140AD
:105200001143396100EB800108EB8100211DFFF79C
:1052100059F9E06A3968C96A8842CDD30125CBE7DC
:1052200044000020007E002070B504004FF0000014
:105230002CD0216D491E2165E36CE26A9A4225D08B
:10524000002923D1201DFEF708FF114A114901232F
:1052500050B9E06A00EB800552F8255025B90D6978
:1052600003FA00F085430D61E06CE062C0F10A00D2
:10527000A061E06A0D6983402B430B6100EB800065
:1052800002EB8000211DFFF71DF9012070BD000019
:10529000007E0020440000202DE9F041C068C46871
:1052A00004F118000746FEF7D8FE124DE86A012601
:1052B00060B139461048FFF705F9E06A2968C96A04
:1052C000884214D90120EE61BDE8F081201DFEF76F
:1052D000C4FEE06A2A6906FA00F111432961064911
:1052E00000EB8000F03901EB8000211DE3E7002096
:1052F000EAE7000044000020F07E00202DE9F0479E
:105300000027FFF781FA234DE86A401EE862E86A49
:10531000D0BBA86820490126B0B3A1F1F0098846A6
:10532000D8F80010E9B1D8F80C00C46804F11800EE
:10533000FEF793FE201DFEF790FEE06A2A6906FA4A
:1053400000F11143296100EB800109EB8100211D6F
:10535000FFF7B8F8E06A2968C96A8842E0D3EE61CD
:10536000DEE7A86938B909E0FFF704FF00B1EE6194
:10537000A869401EA861A8690028F5D1E86901283C
:1053800002D10127FFF780FAFFF74CFA3846BDE853
:10539000F087000044000020F07E00202DE9F04757
:1053A0001E46DDF8209017460D00804612D02C20B6
:1053B000FEF784FD04000AD0FEF74CFBC4F8008021
:1053C000C4E90657C4E90869201DFFF760F82046C4
:1053D000BDE8F0870024FAE71FB50024FEF73AFB8A
:1053E0000948006860B100200921CDE90010029051
:1053F00003460390C02205A10648FFF7E9FD0446D5
:1054000004B0204610BD00007C000020546D7220C6
:1054100053766300313E0008FEB5104D1F4603462B
:105420002C680020089E002C0ED08DE80E00062966
:105430000DDAFFF78BFE02284FF0000305D00022A3
:1054400069462868FFF7FEFCFEBD3246F8E70023F8
:105450003A4669462046FFF765FDFEBD7C00002008
:105460000000000000000000002F00000000070006
:10547000070000147F147F1400242A7F2A12006280
:10548000640813230036495522500000050300002C
:1054900000001C224100000041221C000014083EB4
:1054A00008140008083E0808000000A0600000087A
:1054B00008080808000060600000002010080402CE
:1054C000003E5149453E0000427F4000004261518C
:1054D0004946002141454B31001814127F10002726
:1054E00045454539003C4A494930000171090503E9
:1054F00000364949493600064949291E000036361A
:10550000000000005636000000081422410000147C
:105510001414141400004122140800020151090659
:1055200000324959513E007C1211127C007F4949DA
:105530004936003E41414122007F4141221C007F0B
:1055400049494941007F09090901003E4149497A19
:10555000007F0808087F0000417F41000020404193
:105560003F01007F08142241007F40404040007FFF
:10557000020C027F007F0408107F003E4141413E43
:10558000007F09090906003E4151215E007F09198B
:1055900029460046494949310001017F0101003F88
:1055A0004040403F001F2040201F003F4038403F08
:1055B000006314081463000708700807006151496C
:1055C000454300007F41410000552A552A550000FF
:1055D00041417F000004020102040040404040407D
:1055E000000001020400002054545478007F484415
:1055F000443800384444442000384444487F00384C
:105600005454541800087E0901020018A4A4A47C74
:10561000007F080404780000447D4000004080843E
:105620007D00007F102844000000417F4000007C86
:1056300004180478007C0804047800384444443892
:1056400000FC242424180018242418FC007C0804DE
:10565000040800485454542000043F444020003CB7
:105660004040207C001C2040201C003C4030403C3E
:10567000004428102844001CA0A0A07C00446454CE
:105680004C44141414141414000000000000000012
:105690000000000000000000000000F80000000012
:1056A000000000333000000000100C06100C060053
:1056B000000000000000000040C07840C0784000BA
:1056C000043F04043F040400007088FC083000001C
:1056D000001820FF211E0000F008F000E018000074
:1056E00000211C031E211E0000F00888700000002D
:1056F0001E2123241927211010160E00000000007F
:105700000000000000000000000000E0180402009B
:10571000000000071820400000020418E00000000C
:105720000040201807000000404080F0804040000A
:105730000202010F01020200000000F00000000060
:105740000101011F01010100000000000000000034
:1057500080B07000000000000000000000000000A9
:105760000001010101010101000000000000000032
:1057700000303000000000000000000080601804CD
:10578000006018060100000000E010080810E000AA
:10579000000F102020100F00001010F80000000073
:1057A0000020203F202000000070080808887000BA
:1057B000003028242221300000300888884830003A
:1057C0000018202020110E000000C02010F800005A
:1057D00000070424243F240000F8088888080800F3
:1057E0000019212020110E0000E010888818000008
:1057F000000F112020110E0000380808C8380800DA
:105800000000003F00000000007088080888700059
:10581000001C222121221C0000E010080810E000DA
:105820000000312222110F00000000C0C000000063
:105830000000003030000000000000800000000088
:105840000000806000000000000080402010080080
:105850000001020408102000404040404040400049
:105860000404040404040400000810204080000024
:105870000020100804020100007048080808F00029
:105880000000003036010000C030C828E810E000F9
:105890000718272423140B000000C038E000000084
:1058A000203C23020227382008F8888888700000EE
:1058B000203F202020110E00C030080808083800C2
:1058C000071820202010080008F808080810E00039
:1058D000203F202020100F0008F88888E8081000DA
:1058E000203F20202320180008F88888E8081000AE
:1058F000203F200003000000C030080808380000E6
:1059000007182020221E020008F808000008F808E6
:10591000203F210101213F20000808F8080800006D
:105920000020203F2020000000000808F8080800A0
:10593000C08080807F00000008F888C02818080018
:10594000203F20012638200008F808000000000051
:10595000203F20202020300008F8F800F8F8080048
:10596000203F003F003F200008F830C00008F80842
:10597000203F200007183F00E01008080810E00052
:105980000F10202020100F0008F808080808F00069
:10599000203F210101010000E01008080810E0008C
:1059A0000F18242438504F0008F888888888700021
:1059B000203F2000030C30200070880808083800C1
:1059C0000038202121221C00180808F808081800B7
:1059D0000000203F2000000008F808000008F80838
:1059E000001F202020201F000878880000C83808E9
:1059F000000007380E010000F80800F80008F80061
:105A0000033C0700073C03000818688080681808FA
:105A100020302C03032C30200838C800C838080078
:105A20000000203F2000000010080808C8380800C7
:105A30002038262120201800000000FE020202006B
:105A40000000007F40404000000C30C0000000001B
:105A5000000000010638C00000020202FE00000043
:105A6000004040407F0000000000040202020400E9
:105A70000000000000000000000000000000000026
:105A8000808080808080808000020204000000000E
:105A90000000000000000000000080808080000006
:105AA0000019242222223F2008F8008080000000F4
:105AB000003F112020110E000000008080800000B7
:105AC000000E112020201100000000808088F800C6
:105AD000000E112020103F200000808080800000F8
