:020000040800F2
:10000000E04D0020E9010008771C00086911000894
:10001000751C0008CF04000893370008000000009A
:100020000000000000000000000000004501000882
:100030005D0E00080000000089010008512E000834
:10004000030200080302000803020008030200087C
:100050000302000803020008690E000803020008FA
:10006000030200080302000803020008030200085C
:10007000030200080302000803020008030200084C
:1000800003020008AD090008030200080136000859
:1000900025370008030200080302000803020008D5
:1000A000030200080302000803020008030200081C
:1000B000030200080302000803020008030200080C
:1000C00003020008030200080302000803020008FC
:1000D00003020008D9300008F533000803020008C5
:1000E000A50E00080302000803020008030200082E
:1000F00003020008030200080302000803020008CC
:1001000003020008030200080302000803020008BB
:1001100003020008030200080302000803020008AB
:10012000030200080302000803020008030200089B
:10013000DFF80CD000F0DEF8004800475754000804
:10014000E04D0020204B19680868B0E8F00F80F3FC
:100150000988BFF36F8F4FF0000080F311884EF0D5
:100160000D0E70470000000006480068006880F32C
:10017000088862B661B6BFF34F8FBFF36F8F00DFA1
:1001800000BF00BF08ED00E0EFF30980BFF36F8F01
:100190000D4B1A6820E9F00F106008B54FF0BF0052
:1001A00080F3118806F074F84FF0000080F3118896
:1001B000BDE8084019680868B0E8F00F80F30988C6
:1001C000BFF36F8F704700BF30000020EFF3118046
:1001D0004FF0BF0181F31188704780F31188704799
:1001E000EFF3058070470000064880470648004747
:1001F000FEE7FEE7FEE7FEE7FEE7FEE7FEE7FEE7D7
:10020000FEE7FEE7752E00083101000840EA010311
:100210009B0703D009E008C9121F08C0042AFAD2BC
:1002200003E011F8013B00F8013B521EF9D2704780
:10023000D2B201E000F8012B491EFBD27047002228
:10024000F6E710B513460A4604461946FFF7F0FFD5
:10025000204610BD421C10F8011B0029FBD1801A5A
:100260007047034611F8012B00F8012B002AF9D141
:100270001846704730B505460020034600E05B1C79
:10028000934205D2EC5CC85C201A01D1002CF6D157
:1002900030BD2DE9F05F0546002092469B4688461A
:1002A0000646814640241BE02846414647462246F2
:1002B00000F041F853465A46C01A914110D31146F6
:1002C0001846224600F028F82D1A67EB01084F4621
:1002D00022460120002100F01FF817EB00094E41D3
:1002E000201EA4F10104DFDC484631462A4643467D
:1002F000BDE8F09F064C074D06E0E06840F00103C2
:1003000094E8070098471034AC42F6D3FFF714FF87
:100310001C6B00083C6B0008202A04DB203A00FA22
:1003200002F1002070479140C2F1200320FA03F34C
:10033000194390407047202A04DB203A21FA02F04A
:100340000021704721FA02F3D040C2F1200291400F
:1003500008431946704770B58C1810F8015B15F00A
:10036000070301D110F8013B2A1106D110F8012B27
:1003700003E010F8016B01F8016B5B1EF9D12B074C
:1003800005D40023521E0DD401F8013BFAE710F802
:10039000013BCB1A921C03E013F8015B01F8015BEF
:1003A000521EF9D5A142D8D3002070BD10B54FF42C
:1003B000407001F095FC4FF4E13002F0A1FE0A48D4
:1003C00001F044FA09A003F061FA14A115A003F0AA
:1003D0005DFA1AA21CA11FA003F058FABDE8104054
:1003E00022A003F053BA0000750600080D0A3D3D37
:1003F0003D3D3D3D3D3D3D3D3D3D3D3D3D3D3D3D2D
:100400003D3D3D3D3D3D3D3D3D3D3D3D3D3D3D3D1C
:100410003D3D3D3D3D3D3D3D3D0D0A0056382E32B2
:100420002E3300004672656552544F532056657254
:1004300073696F6E203A2025730D0A0031313A310D
:10044000393A3231000000004665622032372032EE
:1004500030313800436F6D70696C652054696D658B
:10046000203A202573202025730D0A003D3D3D3D97
:100470003D3D3D3D3D3D3D3D3D3D3D3D3D3D3D3DAC
:100480003D3D3D3D3D3D3D3D3D3D3D3D3D3D3D3D9C
:100490003D3D3D3D3D3D3D0D0A00000010B578B1AC
:1004A0004FF48054012805D002280FD110210120DB
:1004B00002F04EFA2146BDE81040022002F000BAD8
:1004C0001021BDE81040012002F042BA10BDFEE745
:1004D000C1B2000A40EA01207047000070B5614BCC
:1004E000614C00205988A4F1400202E0155C2554BB
:1004F000401C0D468842F9D35B48626820301F2DAE
:100500004260A268826007D00220FFF7C7FF002088
:100510002060607B1A2221E0E17B282901D02A2972
:100520000AD1D4F81100227D00BA20F0FF00104358
:100530005860E08A40BA98604C4A2068904252D194
:100540004B4A607B1268904203D8A27B0AB1102A02
:100550000DD90220FFF7A2FF607B2422052102F0C3
:100560008FFABDE870400021012002F06BBA252906
:1005700058D01ADC152971D00DDC08296ED005DCA5
:10058000B9B3032936D004292DD163E00A2965D0F7
:10059000122928D132E01A390A2924D2DFE801F0E1
:1005A0003632235E32232323233E8A2956D00EDCA3
:1005B000552953D006DC28293CD02A2940D02F29A0
:1005C00011D143E05A2925D088290CD146E0A82929
:1005D00044D004DC8F2941D09E2904D13EE0AA29D1
:1005E0003CD0AF293AD00220FFF758FF607B202291
:1005F000B4E71BE0BDE8704001F0BABEBDE8704052
:1006000001F0D4BDBDE8704001F0BEBEBDE8704051
:1006100001F006BEBDE8704001F0FCBDBDE87040D1
:1006200001F070BEBDE8704001F034BEBDE870401E
:1006300001F0AEBED3E90112BDE8704001F0F6BD95
:10064000D3E90112BDE8704001F0D8BEBDE87040AA
:1006500001F0BABEBDE8704001F090BDBDE8704049
:1006600001F0BEBD300100208027002055534243D9
:100670009401002000B5C1B0684605F09FFC0DA0B4
:1006800003F004F917A003F001F91EA003F0FEF82F
:10069000694628A003F0FAF81AA003F0F7F805F06D
:1006A0002BFE014624A003F0F1F816A003F0EEF8AB
:1006B00041B000BD0D0A2D2D2D2D2D2D2D2D2D2DB3
:1006C0002D2D2D2D2D2D2D2D2D2D2D2D2D2D2D2D5A
:1006D0002D2D2D2D2D2D2D2D2D2D2D2D2D2D2D2D4A
:1006E0002D0D0A004E616D65090953746174650929
:1006F0005072696F7209537461636B094E756D0DA9
:100700000A0000002D2D2D2D2D2D2D2D2D2D2D2DC3
:100710002D2D2D2D2D2D2D2D2D2D2D2D2D2D2D2D09
:100720002D2D2D2D2D2D2D2D2D2D2D2D2D2D2D0D19
:100730000A000000257300002020202A2A2055737B
:1007400061626C652052414D2073697A652069733E
:10075000202564204279746573202A2A0D0A00003E
:100760002DE9F041184E194F194C1A4D26E000BFE3
:1007700047F6FF702060288800F00F0107EB81002A
:100780003170D0F8002C92B2130408D5D0F8002CA8
:1007900040F68F731A40C0F8002C0F4809E012068B
:1007A0000CD5D0F8002C48F60F731A40C0F8002C76
:1007B0000A4800EB810050F8040C8047206828802C
:1007C0000004D5D4BDE8F0813C0200200050004078
:1007D000445C004058010020780100205C010020AA
:1007E0002DE9F84F0020ADF80000DFF834A14BF6FA
:1007F000BF7648F280074A4D4A4C40F68F7848F65B
:100800000F7BDFF824910AF1440A31E00888474A57
:1008100010F00F00107034D0454901EB8001D1F881
:10082000002CADF80020BDF8002012040BD5D1F843
:10083000002C02EA0802C1F8002C3E4901EB8000BE
:1008400050F8040C8047BDF80000000610D537486A
:100850003749007801EB8001D1F8002C02EA0B0245
:10086000C1F8002C344901EB800050F8040C80479B
:10087000DAF800004946A9F800000004C6D4BDE833
:10088000F88F28682080208800F030006080208861
:1008900000F4405020802868304080F4005080F000
:1008A0002000384328600888C006286815D400EA6C
:1008B0000B00286000F006FF26E02188890401D59E
:1008C00080F400506188C90626D46188890601D564
:1008D00080F0200038432860D1E7ADF80000BDF873
:1008E0000000000506D5286800EA0800286002F02C
:1008F000D7F809E0BDF800000004B9D5286800EA7F
:100900000800286001F06EFA286821883040C90488
:10091000D3D580F48050D0E780F01000D5E70000F8
:10092000005C00404E020020580100203C020020E4
:1009300000500040780100205C0100208100084840
:100940000844D0F8001C490409D5D0F8001C48F62A
:100950008F7211404CF280021143C0F8001C7047A6
:1009600000500040810008480844D0F8001C4906A7
:1009700009D5D0F8001C48F68F72114048F2C00229
:100980001143C0F8001C7047005000408100064829
:100990000144D1F8000C48F68F62104048F2800202
:1009A0001043C1F8000C70470050004010B54FF0E4
:1009B0000074204600F0A0F8002809D0204600F07E
:1009C0000DF80021034800F015F8034901200880C4
:1009D00010BD00008000024054020020C10002D57A
:1009E00002490860704702494860704704040240A9
:1009F000000002400029016802D041F0010102E03C
:100A00004FF6FE72114001607047000001684FF61A
:100A1000FE72114001600021016041608160C1608F
:100A20003149314A0839904203D1486840F00F00FB
:100A300006E02D4A1432904204D1486840F0F0009C
:100A400048607047284A2832904203D1486840F4F1
:100A50007060F5E7244A3C32904203D1486840F484
:100A60007040EDE7204A5032904203D1486840F48C
:100A70007020E5E71C4A6432904203D1486840F494
:100A80007000DDE7184A7832904203D1486840F0A0
:100A90007060D5E7154A111F904203D1086840F0F5
:100AA0000F0006E0114A1432904204D1086840F069
:100AB000F000086070470D4A2832904203D1086860
:100AC00040F47060F5E7094A3C32904203D108686F
:100AD00040F47040EDE7054A50329042EAD1086890
:100AE00040F47020E5E700000800024008040240DE
:100AF000406880B27047000001460020CA0001D55E
:100B0000034A00E0034A12680A4200D001207047FD
:100B10000004024000000240002A026801D00A439B
:100B200000E08A430260704730B5036847F6F07210
:100B300093430C6A8A682243D1E904452C4322433B
:100B40008C692243CC6922434C6A22438C6A22433B
:100B50001A430260CA6842600A6882604968C160DC
:100B600030BD4160704700002DE9F047DFF8948008
:100B7000254F4FF03009D8F8001001F11005088A10
:100B80000E7A08B9042E04D0AC88A04215D80426E9
:100B900014E01E480178012903D007261020388070
:100BA0002BE01B4A002112681A4B120403EBD232CD
:100BB0005160A7F8009001701FE00226844200D91E
:100BC0000446A968204688478246002000F096FA2D
:100BD00001462246504602F0DDFD2146002001F08C
:100BE000A9FE2888001B2880688820446880A7F810
:100BF000009009494FF440500880D8F80000067270
:100C0000BDE8F0874002002050020020380200209A
:100C1000505C0040006000404E0200202DE9F0478B
:100C2000224EDFF88C803027356835F8100FA96820
:100C3000A9B100B3AC88844200D904462046884755
:100C400081462888001B288068882044688000200E
:100C500000F028FA01462246484601F0E7F82888C5
:100C600048B114494FF4405008800021084601F073
:100C700061FEA8F800702888A988884201D3032063
:100C800001E020B1052031680872BDE8F0873168C5
:100C900006200872084900200968084A090402EB86
:100CA000D1314860A8F80070EFE700004002002052
:100CB000500200204E020020505C004000600040C6
:100CC000F8B55D4C5D4D09262068002729684278FB
:100CD000062A05D0AAB1082A4DD00A2A50D06BE0C6
:100CE0000278520668D18078012804D0022804D006
:100CF000032804D060E0C96956E0096A54E0496AF3
:100D000052E04288B2BBC288022A55D102798ABB1E
:100D10000278530601D1838833B102F07F02012AA1
:100D200004D0022A0CD047E045493DE08A69407969
:100D300000219047F0B92068807A0028F4D13BE088
:100D4000417901F00F0001F070020B063D4901EB03
:100D50008001D1F8001C03D5C1F30111090102E0A3
:100D6000C1F301310903384B1B78834224D90AB9F6
:100D70000029D9D120E0007840061DD1334913E085
:100D8000027802F07F02012A16D1827AA2B142884B
:100D900092B9027982B9C288012A0DD18A69407953
:100DA0000021904740B92A4931B1206847828161CA
:100DB00000208847002006E02968206809694078FB
:100DC0008847032813D021680A8AA2F57F43FF3B96
:100DD0000BD002280ED06AB10878000626D5C88844
:100DE000009082420AD9088218E00E72F8BD20688D
:100DF0000672F8BD4FF008000872F8BD0ED22868E0
:100E0000144B90F82C00824201D21F7006E0B2FB16
:100E1000F0F400FB142008B901201870286890F83D
:100E20002C008882BDE8F840FFF79EBE03200872C0
:100E3000094900030880F8BD400200204402002058
:100E4000712C00080050004000020020052C000812
:100E5000492C0008380200204E020020704700F0A4
:100E600085BE00F0B7BE000038B5012000F040F8A4
:100E7000002814D000240A4D009423462246032162
:100E8000286805F0C1FD012000F02CF805F09CFC5D
:100E90000246009400230121286805F0B5FD38BD05
:100EA00064020020F8B54FF48056304600F020F878
:100EB000002814D000240A4D009423462246032122
:100EC000686805F0A1FD304600F00CF805F07CFCE8
:100ED0000246009400230121686805F095FDF8BDE5
:100EE0006C020020014908607047000014040140B2
:100EF000064A014600201268044B0A4014331B685E
:100F00000B4202D0002A00D00120704700040140AB
:100F100030B51A498379026853B30B6893430B6069
:100F20000A1D13680468A343136002790A44136816
:100F3000046823431360114A083213680468A3430A
:100F40001360131D1C680568AC431C604479102CA9
:100F500005D021440A68006802430A6030BD116868
:100F6000046821431160196800680143196030BDAD
:100F70000079084401689143016030BD00040140DC
:100F8000014903200860704728020020AFF3008069
:100F900038B50121102000F0A9FF0A20ADF80000AB
:100FA00010208DF803000320054C8DF802006946DF
:100FB000204600F01BF80A21204600F071F838BDE9
:100FC0000010014010B58A0721F003040649130FF1
:100FD00021440F228C689A4094438C608A68984020
:100FE00002438A6010BD000000000140F0B5CA78DD
:100FF000002502F00F03D20601D58A7813430A7840
:101000004FF00F0E12F0FF0F4FF001021CD00468DA
:101010000F8802FA05F63740B74211D14FEA850C26
:101020000EFA0CF724EA070703FA0CF43C43CF78D6
:10103000282F02D0482F02D002E0466100E006616E
:101040006D1C082DE4D304600C88FF2C1ED9446865
:101050005FF0000606F1080702FA07F50F882F4037
:10106000AF420FD14FEA860C0EFA0CF7BC4303FADD
:101070000CF73C43CF78282F00D14561CF78482F1B
:1010800000D10561761C082EE4D34460F0BD024611
:10109000002092680A4200D00120704741617047E9
:1010A000016170470549096889B201EBC000044934
:1010B00001EB4000008980B270470000505C0040A6
:1010C000006000400549096889B201EBC00004498D
:1010D00001EB40008089C0F309007047505C00407C
:1010E00000600040044901EB8000D0F8000CC0F320
:1010F00001300003704700000050004004490968B7
:1011000089B201EBC000034931F8100080B270478A
:10111000505C00400060004008B10448704704493A
:101120000120096808820020704700009401002017
:10113000400200200A4810B50168001D0468001D27
:10114000006808180BD00822064900F0E9FA0549A2
:1011500020460422BDE81040103100F0E1BA10BD75
:10116000E8F7FF1F3E010020FEE7000010B5FFF783
:101170000DFF00F085FB064800F01EFB4FF4E12058
:1011800002F024F8BDE81040022000F0FDB9000094
:10119000B915000810B50C490CA000F0A9F90A49CE
:1011A000012201F1E80003F06FFC074920B10AA019
:1011B00002F06CFB002010BD10A002F067FB02489B
:1011C000E830C16812A0F3E7D0380020313A55501A
:1011D000444154450000000066696C6532204E6150
:1011E0006D652069733A257320202020202020205F
:1011F0002020204572726F720D0A000066696C65CE
:1012000032204E616D652069733A25730D0A000026
:1012100066696C65322053697A652069733A256C7A
:10122000640D0A0010B5032000F0F4F902F0DCF8B8
:1012300000236422124905F0A1F8114C0A21641F11
:1012400010B16079792803D020786070217010BDCA
:10125000042000F0DFF90B48C821C068B0FBF1F2B0
:10126000521CE280B0FBF1F201FB1200E07000F0D2
:101270000300C0F1040020710420207010BD0000A4
:101280007D020020B839002003480121C0F88411F4
:101290000021C0F88C117047000022420348002151
:1012A000C0F884110121C0F88C117047000022425F
:1012B00002490120C1F88C01704700000000224261
:1012C000F8B5022000F0A6F902F08EF8002364229F
:1012D000154905F053F8144C0A21641F10B16079C8
:1012E000792803D0207860702170F8BD00256E4603
:1012F00002F07AF871190023642205F03FF86D1CA2
:10130000EDB2042DF4D39DF801009DF8021000EB1E
:10131000C00202EB001001EB800104A002F0B6FA5B
:1013200003202070F8BD00007D02002050494420B9
:101330003D20307825640D0A0000000010B502F051
:1013400053F8002344F62062094905F017F8084CC9
:101350000A21641F10B16079792803D02078607069
:10136000217010BD082000F055F90920207010BD33
:101370007D02002070B502F037F8002344F62062A9
:10138000094904F0FBFF084C0A25641F10B160797D
:10139000792802D02078607004E04FF0006000F0FF
:1013A0001FF96570257070BD7D02002001488068BE
:1013B00070470000780200202DE9F041114C804672
:1013C000114861784022051F80260A2905D02A602D
:1013D00006600EA002F05AFA04E02E60026010A02F
:1013E00002F054FAFFF75AFF0027E760A77014488D
:1013F00002F063FF2770404604F0FAFE2E60BDE85D
:10140000F081000078020020140C01404953502064
:1014100053544550202564204552524F520D0A0026
:10142000554152543220424520524541445920549E
:101430004F2055504752414445202E2E2E0D0A0074
:10144000B839002010B501F0CFFF002364220B490A
:1014500004F094FF094C0A21641F10B160797928C7
:1014600003D020786070217010BDE06800F100604A
:1014700000F0B6F80720207010BD00007D020020AB
:1014800070B501F0B1FF00234FF47A72164904F0F1
:1014900075FF154C0A21641F10B3607979281FD19C
:1014A000E068C822B0FBF2F5E3886D1C9D4208D2CB
:1014B000C8210E4800F0E8F8E068C830E060042079
:1014C0000CE0B0FBF2F0401C984209D1E0782179A1
:1014D0000844C1B2054800F0D7F80820207070BD5C
:1014E00020786070217070BD7D020020F0380020EF
:1014F00070B50E468EB00546014606A803F065FBA2
:1015000004000FD1694606A803F04BFC040009D182
:101510009DF8090030B12A4604A130460DF10903B7
:1015200002F0C4F90EB0204670BD000025732F25CF
:101530007300000010B5134CA078401CA07001F09F
:1015400053FF002104F08DFF012000F063F801F04B
:101550004BFF00236422611D04F010FF0A2120B11B
:101560006079792808D01F2806D0A078022802D9EF
:1015700020786070217010BD0020A07002202070C3
:1015800010BD0000780200201FB500210090054A20
:10159000CDE901210B460391802203A1054805F006
:1015A00053F81FBD80020020765461736B4953507D
:1015B00055320000E55E000810B5FFF7F7FE04F0B5
:1015C000B7FDBDE8104001A002F060B949535020BA
:1015D000424547494E494E472E2E2E0D0A00000027
:1015E00031B500246D4601F03BFE0949002000BFE3
:1015F000C0F10302AB5C0B54AA5C401C5440C0B267
:101600000428F5D30C54052001F034FE38BD000049
:10161000CC27002009281ED2DFE800F01D05080CA9
:10162000101D1D14180001210B4812E00A48022168
:10163000401C0EE008480221C01C0AE006480221B6
:10164000401D06E004480221C01D02E002480221BC
:10165000093000F003B870470E6B000870B50C46F7
:10166000054601F0FDFD0022064803E0A95C815417
:10167000521CD2B2A242F9D32046BDE8704001F01C
:10168000F9BD0000CC27002070B50646481E0C4668
:10169000C5B201F0E5FD0A480022057006E0831896
:1016A000B15C5970B15C4D40521CD2B2A242F6D32B
:1016B00020444570A01CBDE8704001F0DBBD000077
:1016C000CC27002010B5134C2068017A022904D0E1
:1016D000042902D0062905D015E0FFF745FA206855
:1016E000007A11E04178052909D10178490606D12F
:1016F000C07801F091F808480068006A8047074800
:10170000006880688047082021680872BDE81040A2
:1017100000F09CBB40020020480200204402002050
:10172000F0B500230A24302537261F4611E000BFFC
:10173000B4EB107F02D905EB107C01E006EB107CC6
:1017400001F813C001EB430C00015B1C8CF8017025
:10175000DBB29342ECD3F0BD7FB50121052000F050
:10176000C5FB06208DF808000A208DF80900002529
:101770008DF80A5001248DF80B4002A800F07EFA83
:10178000ADF80C4004208DF80F0003A90948FFF7BD
:101790002DFC00210846FFF715FC8DF804500820A9
:1017A0008DF8050000948DF806406846FFF7B0FB01
:1017B0007FBD00000008014038B5074C6060FFF7AE
:1017C000CBFF0648009001230022142104A005F05D
:1017D000DDF8206038BD0000640200201D5D0008B7
:1017E000764B45595461736B000000007FB50121B1
:1017F000092000F07BFB28208DF808000A208DF8D6
:10180000090000248DF80A4001258DF80B5002A82C
:1018100000F034FA2E03ADF80C6004208DF80F00B0
:1018200003A90948FFF7E2FB0C210120FFF7CAFBDF
:101830008DF8044008208DF8050000968DF80650BC
:101840006846FFF765FB7FBD000C014038B5074CCB
:101850002060FFF7CBFF06480090012300221421EF
:1018600004A005F093F8606038BD00006C02002011
:10187000795E0008765374617475735461736B00FC
:10188000F8B501210C2000F031FB8020ADF80000FC
:1018900010208DF803000320164D8DF802006946D4
:1018A0002846FFF7A3FB4020ADF800006946284614
:1018B000FFF79CFB2020ADF8000069462846FFF7A3
:1018C00095FB0D4EAC15ADF8004069463046FFF76C
:1018D0008DFB80212846FFF7E3FB40212846FFF7D8
:1018E000DFFB20212846FFF7DBFB21463046FFF7D0
:1018F000D7FBF8BD000C0140000801400448817A84
:10190000044809B1052100E0012101607047000091
:10191000B02700202802002048B906494FF4805023
:101920000860091D401008600003083908600020A5
:10193000704700008400002010B5144608B1012053
:1019400010BD1A46204600F095FD002010BD70B570
:101950001D4616460C4608B1012070BD084600F031
:101960009DFE2A462146304600F0AEFD002070BDA7
:101970000D4900B509680A7802F07F02212A08D1D2
:10198000FE2806D1488820B9888810B9C88801285F
:1019900001D0022000BD0548886100204882FFF781
:1019A000BBFB002000BD0000400200201911000810
:1019B000014901F03BB90000A0010020014901F0FC
:1019C00035B900009801002005490968C978052942
:1019D00001D900207047034A02EBC10101F026B98A
:1019E00040020020D801002009B9002800D00220C0
:1019F000704700000F4910B509680A7802F07F02AD
:101A0000212A07D1FF2805D1488818B9888808B944
:101A1000C88808B1022010BD0120FEF7A3FF0220F4
:101A2000FEF78CFF0549044808600549002008704E
:101A300010BD000040020020555342438027002083
:101A40003001002070B530480025314985722F489B
:101A50000968C0794872284600F0D6FE4FF400713C
:101A6000002000F08DFF2021002000F071FF1821E0
:101A7000002000F0F5FE274C002014F82C1F00F089
:101A8000FFFE5821002000F045FF0020FEF77EFFFA
:101A9000002000F02DFF0021012000F071FF9821AF
:101AA000012000F037FF2021012000F051FF00212C
:101AB000012000F005FF0021022000F061FFD82185
:101AC000022000F0CDFE2178022000F0D9FE4FF474
:101AD0004051022000F0F4FE0021022000F038FF07
:101AE0002178002000F0CCFE002000F001FF002053
:101AF00000F092FE08490120086009490748086083
:101B00000848057070BD0000B02700208E6A0008EC
:101B100040020020A8010020280200205553424323
:101B200080270020300100207047704710B5FFF774
:101B300001FB054800240068847200F0A9F901F057
:101B4000F3FD0248046010BD40020020280200207E
:101B5000044805490068884202D00220FEF79EBC76
:101B6000704700008027002055534243174B10B5A3
:101B70001878022819D04FF44054032820D00428A4
:101B800001D0052821D1002018702146022000F044
:101B900097FE0220FFF7A6FAB0F5805F15D1214627
:101BA000BDE81040022000F08BBE0948C17B282907
:101BB0000BD1D3E90112407BBDE8104000F036BBE9
:101BC0000121002000F03EFFE9E710BD30010020B8
:101BD0008027002070B5154C0220A4F14001E57B60
:101BE00001F0B2FD12494880087818B1012805D0EB
:101BF000022006E0BDE87040FEF770BC2A2D0DD033
:101C00000120FEF74BFC607B2422052100F038FF09
:101C1000BDE870400021022000F014BF8A68607B9C
:101C20004968BDE8704000F0E9BB00008027002053
:101C300030010020094810B50068807A00280BD0D8
:101C40000749052008600120FEF78CFE0220FEF700
:101C500075FE04490020087010BD000040020020FD
:101C6000280200203001002001490420086070474C
:101C700028020020FEE770477047000070B50F2370
:101C8000C47801780122F4B1144C2468457804F436
:101C9000E064C4F5E064240AC4F10406E3408478F7
:101CA000B5401C402C4301F1E021230181F80034B0
:101CB000007800F01F018A404009800000F1E02018
:101CC000C0F8002170BD01F01F008240480980006B
:101CD00000F1E020C0F8802170BD00000CED00E0B4
:101CE0000249084302490860704700000000FA05F5
:101CF0000CED00E004480168044A01F4E06111437E
:101D00000160BFF34F8FFEE70CED00E00400FA0521
:101D100070B52F4D2868017844784A0606D001F046
:101D20007F00012828D002282BD035E0092C06D0CE
:101D3000052C07D0032C0ED0012C14D02CE000F081
:101D4000E1FF28E0C1787F292ED8817861BB8188A6
:101D500051BB807A27E0C17801291DD18088D8B98C
:101D600000F0ECFF17E0C178012915D1818899B9FD
:101D7000407A80060AD40FE00B2C0DD101F034F824
:101D800009E0012C02D0032C03D005E000F0BCFEDA
:101D900001E000F0E5FF58B10E49204609684969A5
:101DA0008847032802D018B108200DE009200BE075
:101DB000094A062000211268084B120403EBD232B4
:101DC0005160074A302111802968087270BD0000F7
:101DD0004002002044020020505C004000600040AF
:101DE0005002002010B50F4C2068007A022811D054
:101DF00004280FD0032804D0052802D0072805D0D6
:101E000008E0FEF70BFF2068007A04E0064800684F
:101E1000C0688047082021680872BDE8104000F0C3
:101E200015B800004002002044020020064B521C5E
:101E3000520803EB410105D031F8043B20F8023B86
:101E4000521EF9D170470000006000400C4810B5E8
:101E500090F82C10002000F013FD0A480068007A6A
:101E6000082802D0092809D006E007494FF480501D
:101E70000880064910200880002010BD012010BDF8
:101E8000A8010020400200204E0200205002002045
:101E900010B5012001F094FB0648012101600021EA
:101EA000054A0160031D19604FF4E0511180016083
:101EB000002010BD405C00404C020020044A002974
:101EC000516901D0014300E0814351617047000036
:101ED00000100240044A0029D16901D0014300E00A
:101EE0008143D1617047000000100240044A00297C
:101EF000916901D0014300E0814391617047000086
:101F00000010024030B51F494A6812F00C031E4A07
:101F100003D0042B01D0082B21D002604A680F2384
:101F20001A4C03EA1212A35C0268DA4042604B6862
:101F3000072505EA1323E35C22FA03F383604B6869
:101F400005EAD323E35CDA40C2604968032303EA6D
:101F50009131231F595CB2FBF1F1016130BD4A6838
:101F60004B6802F470124FF0020413F4803F04EB4C
:101F7000924202D04B689B0301D5054B00E0024B17
:101F80005A43CAE70010024000127A000400002001
:101F900000093D000149C1F8D800704700004242E5
:101FA00070B5274C0646274D207810B1012808D07F
:101FB00028E055F8260041435043C4E903100120AE
:101FC0002070606848B32048E169402201448120C4
:101FD00001F0CCFB606840386060E0694030E0614F
:101FE0004021012000F0A6FC3021012000F0B0FCCF
:101FF000E0684030E0602069403820611348816823
:10200000403981602069002806D16060E061104A93
:102010000321E0601170207070BD35F826000A4A77
:1020200083B23046E168FFF787FC402206498120F1
:1020300001F09CFB55F82600403860604020CEE758
:102040008C0000208400002040170020A0270020E2
:10205000300100202DE9F041214C072800D02070EC
:1020600022781F4D0627052104261E48062A0BD27A
:10207000DFE802F0030C11161E27686810B121700A
:10208000BDE8F08100F030F82770F9E700F02CF897
:102090002670012022E00220607003202070EFE70C
:1020A0006078401E607060780028E9D12670E7E70C
:1020B000026892B242F01002026021700A20607041
:1020C000DEE76178491E617061780029D8D1016826
:1020D00089B221F010010160277000206860CFE70D
:1020E00030020020405C004010B5064C206880B2F1
:1020F00020F004002060FFF701FC4FF43F40206017
:1021000010BD0000405C004070B5184C1A4454F8F3
:102110002040A2420DD92A2902D10220FEF7BEF9A1
:102120000020FEF7BBF91249052221208A700873AE
:1021300011E0114D0F4C55F82000A268584382421F
:1021400011D02A290DD00020FEF7A8F9607B2422A7
:10215000052100F095FC0021012000F073FC002017
:1021600070BD0220F0E7012070BD00008800002053
:1021700009010020802700208400002010B5FFF70F
:10218000CBFB00280ED008483A220221407B00F009
:1021900077FC0121084600F055FCBDE81040002006
:1021A000FEF77CB910BD00008027002008490A7C9A
:1021B000D20702D00748052105E030B10648C97CA6
:1021C000242900D9242100F07DBE0448F7E700004F
:1021D00080270020B0000020D9000020B50000209A
:1021E00010B50B4CA06810B1207B000601D5002073
:1021F00000E00220FEF752F9607B2022052100F06A
:102200003FFC0021BDE81040012000F01BBC000095
:10221000802700200821014800F054BE0101002061
:102220000421014800F04EBEFD0000202DE9F041E0
:10223000164D8046164628780F4630B1022823D125
:102240004046BDE8F041FFF7ABBE114C13460A46CD
:10225000607B2821FFF758FF002815D0207B00065F
:102260004FF0020003D5287032463946E8E7FEF702
:1022700015F9607B2422052100F002FCBDE8F04145
:102280000121084600F0DEBBBDE8F08130010020EE
:102290008027002010B50446FFF73EFB70B11548BB
:1022A0003A220221407B00F0EBFB0121084600F0BE
:1022B000C9FBBDE810400020FEF7F0B80E480F49FA
:1022C00050F82420521E100E0870100C4870100A8E
:1022D00088700B48CA7050F82400020E0A71020C74
:1022E0004A71020A8A71C871BDE81040082103488A
:1022F00000F0E8BD80270020880000201B0100209E
:102300008400002010B50446FFF706FB70B11448A6
:102310003A220221407B00F0B3FB0121084600F085
:1023200091FBBDE810400020FEF7B8B80D480E49FB
:1023300050F82420100E0871100C4871100A887192
:102340000A48CA7150F82400020C4A72020A8A72C2
:10235000C872BDE810400C21034800F0B3BD000076
:102360008027002088000020230100208400002016
:102370000348C17C122900D91221024800F0A2BDF5
:1023800080270020090100200121002000F05ABB15
:1023900010B5FFF7C1FA70B10A483A220221407B1A
:1023A00000F06EFB0121084600F04CFBBDE8104038
:1023B0000020FEF773B80121BDE81040002000F0B6
:1023C00041BB00008027002010B50B4CA06828B945
:1023D000207C400702D40121002009E00220FEF702
:1023E0005DF8607B2422052100F04AFB00210120DA
:1023F000BDE8104000F026BB8027002070B5164DC8
:102400002B782BB1012B26D1BDE8704001F0D8B953
:10241000124C13460A46607B2A21FFF775FE0028FE
:1024200019D0207B000608D401202870BDE8704038
:102430004FF44051022000F043BA0020FEF72EF87E
:10244000607B2422052100F01BFBBDE870400021C9
:10245000012000F0F7BA70BD300100208027002075
:102460000029018802D041F0400101E021F0400143
:10247000018070472DE9F041124F0D460646144683
:1024800010213846FEF70AFE032000F02BF9C5F3B1
:10249000074000F027F9C5F3072000F023F9E8B260
:1024A00000F020F904E0FF2000F01CF906F8010B11
:1024B000641EA4B2F7D23846BDE8F0411021FEF701
:1024C000EFBD0000000801402DE9F04707460E4629
:1024D00011F0FF00C0F10001CDB24FEA122402F06A
:1024E000FF094FF4807A13D0F0B24042C0B206EB3D
:1024F00000080CB3501B80B2040A00F0FF092A4602
:102500003146384600F09AF83D44464657462AE0A0
:102510006CB15546641EE4B20CD32A4631463846A7
:1025200000F08CF806F5807607F58077F2E7314603
:10253000384621E04A46FAE7A945F8D9A9EB050053
:10254000C4B22A463146384600F078F84146781938
:10255000224611E03A463146284600F06FF805F56C
:10256000807506F58076641EE4B2F3D2B9F10000FE
:1025700006D0024631462846BDE8F04700F05EB876
:10258000BDE8F08710B5012186B00803FFF7AEFC67
:102590000121C420FFF7AAFC1020ADF8140003218C
:1025A0008DF81610234C8DF8170005A92046FEF76C
:1025B0001DFD2020ADF8140018208DF8170005A986
:1025C0002046FEF713FD4020ADF8140005A9204673
:1025D000FEF70CFD8020ADF8140005A92046FEF79B
:1025E00005FD10212046FEF75BFD0020ADF8000040
:1025F0004FF48271ADF80210ADF804000221ADF87D
:1026000006100121ADF808104902ADF80A100821A2
:10261000ADF80C10ADF80E000720074CADF8100017
:102620006946204600F0D3F801212046FFF718FF45
:1026300006B010BD00080140003001402DE9F04116
:1026400014460D46064600F093F8134F1021384605
:10265000FEF724FD022000F045F8C5F3074000F026
:1026600041F8C5F3072000F03DF8E8B200F03AF871
:10267000B4F5807F04D9FF24307800F033F8761C5D
:10268000641EA4B2F8D210213846FEF709FDBDE859
:10269000F04100F057B800000008014070B5044652
:1026A00000F066F800F04EF80D4D10212846FEF7B8
:1026B000F5FC202000F016F8C4F3074000F012F8F3
:1026C000C4F3072000F00EF8E0B200F00BF8102180
:1026D0002846FEF7E5FCBDE8704000F033B8000086
:1026E000000801402DE9F041144C4FF48056074694
:1026F0002660134D03E02068411E216010D30221A3
:10270000284600F059F80028F5D03946284600F050
:102710005CF8266006E02168481E206002D2002096
:10272000BDE8F0810121284600F046F80028F2D0EB
:10273000284600F048F8C0B2F2E70000740200201A
:102740000030014010B5094C10212046FEF7A6FCD0
:102750000520FFF7C7FFFF20FFF7C4FFC007FAD12E
:102760002046BDE810401021FEF79ABC0008014049
:1027700010B5074C10212046FEF790FC0620FFF70D
:10278000B1FF2046BDE810401021FEF789BC0000D3
:102790000008014010B5074C10212046FEF77EFCD2
:1027A000AB20FFF79FFF2046BDE810401021FEF749
:1027B00077BC0000000801400246002012890A424E
:1027C00000D001207047808970478181704730B503
:1027D00002884C8802F441530A88CD8822438C88B1
:1027E0002C4322430C8922434C8922438C89224367
:1027F000CC8922431A430280828B22F400628283B6
:10280000098A018230BD0000024920F007000860FB
:1028100070470000505C0040F0B50E490E4D48F680
:102820008F770B78002148F2800C0BE0CEB205EBDD
:102830008604D4F8002C3A40324342EA0C02C4F831
:10284000002C491C9942F1D3044940F080000860F3
:10285000F0BD000000020020005000404C5C004031
:10286000054A21F00101126892B202EBC000034A4E
:1028700002EB400081607047505C00400060004007
:102880000D4A12683E2992B202EBC0000B4A02EBDD
:10289000400209D94809C90601D1401E80B24FF44F
:1028A000004141EA802004E04808C90700D0401CEC
:1028B0008002106070470000505C00400C600040D7
:1028C00082000A480244D2F8000C4BF68F7318407D
:1028D000CB0401D580F48050890401D580F40050E8
:1028E00048F280010843C2F8000C704700500040D5
:1028F000810007480144D1F8000C4BF68F7210405C
:1029000080F4405048F280021043C1F8000C704738
:1029100000500040054A21F00101126892B202EB1A
:10292000C000034A42F8101070470000505C00409D
:1029300000600040044A126892B202EBC000034AF1
:1029400002EB400041607047505C00400060004076
:1029500082000A480244D2F8000C48F6BF731840BF
:10296000CB0601D580F01000890601D580F020004B
:1029700048F280010843C2F8000C70470050004044
:10298000820005480244D2F8000C48F68F13184024
:102990000843C2F8000C7047005000400CB50021FD
:1029A000264801910091026842F4803202604FF49F
:1029B000A063026802F400320092019A521C019254
:1029C000009A12B9019A9A42F3D10268920333D560
:1029D000012100911A490A6842F010020A600A684F
:1029E00022F003020A600A6842F002020A604168AB
:1029F000416041684160416841F4806141604168E3
:102A000021F47C114160416841F4E81141600168A2
:102A100041F08071016001688901FCD5416821F0B5
:102A200003014160416841F0020141604168C1F326
:102A300081010229FAD10CBD00910CBD00100240A9
:102A40000020024010B50C460B490A4A0A60087380
:102A50000D22812000F08AFE08480521002C01701B
:102A600007D0042101703021BDE810400120FFF79C
:102A70006FBF10BD55534253A027002030010020E6
:102A800001488170027370470901002010B50020D1
:102A9000FFF780FA0121BDE81040C805FFF71ABA18
:102AA00070B516480068174D0004C10B1448014466
:102AB000098989B200EB41042868017A09290FD0FD
:102AC0002178017061784170A088FDF701FD2968C7
:102AD00048802089FDF7FCFC29688880A089C8808F
:102AE000286801210172C08828B1FEF7E9F8BDE825
:102AF0007040FFF7ABB9FFF70BF9F8E7505C004007
:102B000000600040400200202DE9F0413848006894
:102B1000017811F07F0102D0022905D066E0417AE8
:102B200001F0DF0141724EE0418800295ED1017958
:102B3000F1BB4179304D21F080040A0605EB840297
:102B40002C4BD2F8002C03D5C2F30112120102E083
:102B5000C2F3013212031E782346A64246D93AB385
:102B6000807A28B308064FEA84000ED52844D0F8AE
:102B7000000CC0F30110012821D11846FDF7F2FE28
:102B800020463021FFF7E4FE19E04619D6F8000C84
:102B9000C0F30130012812D14BF68F7748F280083C
:102BA000A4B11846FDF7CAFED6F8000C384000E084
:102BB0001CE080F4405040EA0800C6F8000C0F48C2
:102BC0000068406980470020BDE8F0810C4890F81B
:102BD0002C100020FFF754FED5F8000C384080F48C
:102BE000405040EA0800C5F8000CE8E70220EBE797
:102BF0004002002000020020005000404802002057
:102C0000A801002010B5074C30B1074800680068E3
:102C1000804720680A3010BD21680120088200200A
:102C200010BD00004002002048020020054A136841
:102C30005A8A10B10868104470478888801A188230
:102C4000002070474002002010B5074C30B1074803
:102C500000688068804720680C3010BD2168012022
:102C60000882002010BD0000400200204802002021
:102C7000204910B5096860B11F48002202800A7817
:102C800053060AD002F07F02012A16D0022A16D07B
:102C900001E002200882002010BD497A8A060278ED
:102CA00002D542F0020201E002F0FD024906027084
:102CB000D1B211D401F0FE0110E00F4810BD4A79E5
:102CC000110713060D4A02EB9161D1F8001C07D5DC
:102CD000C1F3011106E0017841F00101017003E048
:102CE000C1F301310129F6D0054800680069804729
:102CF000E3E70000400200203A02002000500040BC
:102D0000480200200A4810B500680A4AC178527883
:102D1000914203D882780AB982880AB1022010BD94
:102D200081720548006840688047002010BD00009F
:102D3000400200200002002048020020064810B592
:102D40000068417A41F02001417204480068C0697E
:102D50008047002010BD00004002002048020020F3
:102D600070B51D481D4D0368597921F0800005EBB1
:102D700080000C06D0F8004C21F0800203D5C4F38B
:102D80000114240102E0C4F301342403144D2D780E
:102D9000954210D95A8872B96CB19A7A5AB109061B
:102DA000D0F8001C48F2800207D548F6BF731940DE
:102DB00081F0100106E0022070BD4BF68F731940C0
:102DC00081F480511143C0F8001C064800688069F6
:102DD0008047002070BD00004002002000500040ED
:102DE000000200204802002010B50E4C0E4A206858
:102DF0001268C17892694079904721688A7A22B135
:102E000018B9087908B9887808B1022010BD0748B8
:102E10000068C068804720684179C172C178017339
:102E2000002010BD40020020440200204802002083
:102E30000648016889B241F008010160016889B261
:102E400041F004010160FEF79BB80000405C0040C7
:102E500010B5FDF7BBF903F0BDFC18B104494FF004
:102E600080500860BDE810400020FDF7B6B90000B2
:102E700004ED00E00F4810B5016841F00101016068
:102E800041680D4A1140416001680C4A11400160DF
:102E9000016821F480210160416821F4FE01416054
:102EA0004FF41F018160FFF779FD05494FF0006085
:102EB000086010BD001002400000FFF8FFFFF6FEA2
:102EC00008ED00E010B50C460A460146812000F0EE
:102ED0004DFC30210120FFF73BFD05490320087020
:102EE00004488168091B81600021017310BD000046
:102EF00030010020A027002010B588B0044601460C
:102F0000684601F062FE30B1204601F036FA10B991
:102F100003A000F0BBFC684601F0DDF908B010BD6D
:102F200070617468204F4B200D0A000010B50DA091
:102F300000F0ACFC4FF48052012110A001F0C8FA5F
:102F4000010004D0BDE810400DA000F09FBC10A00F
:102F500000F09CFC11A001F04BFF0DA000F096FCCE
:102F6000FEF7C8FE666C61736820666F726D6174EF
:102F700074696E67202E2E2E0D0A0000313A000073
:102F8000665F6D6B6673203D2025640D0A000000AE
:102F9000666C617368204F4B210D0A00313A555021
:102FA00044415445000000001FB5012211A1124800
:102FB00001F044FD0D2819D0002819D10FA000F010
:102FC00065FC03AA69460BA001F08EF9694611A0C1
:102FD00000F05CFC0622694613A0FDF74BF90028BF
:102FE00006D013A001F004FFFEF784FEFFF79EFF5A
:102FF0001FBD0000313A0000A0280020466C61731C
:1030000068206D6F756E74207375636365737321CB
:103010000D0A000050617468206E616D652069734F
:103020002025730D0A00000055504441544500000E
:10303000313A5550444154450000000001A0FFF7CB
:103040005BBF0000313A5550444154450000000038
:1030500010B5FFF7A9FFFFF7F1FFBDE81040AFF390
:10306000008010B54FF47A74002000F00FF8641E51
:10307000A4B2FCD2012000F009F8FFF707FD00F030
:10308000D5FABDE8104000F0BDBA000010B5044606
:1030900001210420FEF72AFF0C49086824B14FF6ED
:1030A000FD721040086010BD80B240F00200086060
:1030B0000748016821F47F210160016841F44C3127
:1030C000016004490020C1F8B00110BD405C00401F
:1030D000040801400000214210B5084C40F225517F
:1030E000204600F0D8F9002806D0204600F060FA0B
:1030F000BDE8104000F058B810BD00000038014095
:1031000030B5044687B001210420FEF7EFFE01210F
:103110008803FEF7EBFE4FF40070ADF810001820A6
:103120008DF8130003201E4D8DF8120004A92846C7
:10313000FDF75CFF2815ADF8100004208DF8130092
:1031400004A92846FDF752FF00940024ADF808407A
:103150000C20144DADF80440ADF80A00ADF806405F
:10316000ADF80C406946284600F0CCF9012128460C
:1031700000F078F925208DF8140005208DF8150051
:103180008DF8164001208DF8170005A8FEF776FD92
:10319000012240F22551284600F09CF907B030BDCD
:1031A000000801400038014070B5074D0446C1B227
:1031B000284600F001FA8021284600F065F9002831
:1031C000F9D0204670BD00000038014010B504461B
:1031D00000220121082003F0ADF80549486020468F
:1031E00000F0A2F800F006F8BDE8104000F050B87A
:1031F0005402002010B5174C8CB000212046FDF77A
:10320000F9FB01210846FEF759FE2046FDF7FEFBBB
:103210001148009011480021CDE901010820CDE9B5
:1032200003018020CDE905018001CDE90810079157
:103230000A9169462046FDF777FC01212046FDF7FB
:10324000D9FB054801224021001F00F015F90CB000
:1032500010BD00006C000240044400405C020020ED
:10326000034801880029FDD000210180704700003B
:103270005402002010B5054C01462046FDF771FCB4
:103280002046BDE810400121FDF7B4BB800002409C
:1032900030B5224D8DB000212846FDF7ABFB012152
:1032A0000846FEF70BFE2846FDF7B0FB1C480090D1
:1032B0001C48019010200290D2200024CDE9030484
:1032C0008020CDE905048001CDE9084007946946D6
:1032D00028460A94FDF728FCA804FDF77FFB00218F
:1032E0002846FDF787FB012202212846FDF714FC42
:1032F00011208DF82C0003208DF82D008DF82E4024
:1033000001208DF82F000BA8FEF7B8FC044801221D
:103310008021001F00F0B0F80DB030BD80000240E9
:1033200004440040CC27002070B5054686B001213A
:103330000420FEF7DBFD01214804FEF7CBFD042449
:10334000ADF8104018208DF813000320244E8DF89E
:10335000120004A93046FDF749FE0820ADF8100020
:103360008DF8134004A93046FDF740FEA002ADF8E9
:10337000040080100095ADF8080000250C20194EBF
:10338000ADF80A00ADF80650ADF80C50694630466D
:1033900000F0B8F80121304600F064F826208DF8DE
:1033A00014008DF815408DF8165001208DF8170087
:1033B00005A8FEF763FC002240F22661304600F0CB
:1033C00089F8002240F22551304600F083F80122AE
:1033D00040F22441304600F07DF806B070BD000098
:1033E0000008014000440040014840687047000068
:1033F000540200202DE9F843174C40F224412046A6
:1034000000F049F8002825D0144D00212846FDF78A
:10341000F1FA2088201D00882846FDF769FB104F2F
:10342000C0F1080086B20024A7F1080808E03919A5
:1034300000236A46D8F8040003F0B0F8641CA4B274
:10344000B442F4D308212846FDF78BFB012128461E
:10345000FDF7D0FABDE8F883004400406C0002405C
:103460005C0200200029818902D041F4005101E072
:1034700021F4005181817047002A828A01D00A43D9
:1034800000E08A43828270470246002012880A4286
:1034900000D00120704730B501F01F020124002543
:1034A000C1F3421304FA02F2012B0FD0022B0FD00A
:1034B000838A4FEA11210088134204FA01F400EADA
:1034C000040001D000B10125284630BD8389F0E712
:1034D000038AEEE710B5C1F3421301F01F04012186
:1034E000A140012B07D0022B07D01430002A02681C
:1034F00005D00A4304E00C30F8E71030F6E78A43C1
:10350000026010BD30B50446008A85B00D464CF609
:10351000FF710840E98801432182A1894EF6F3102A
:103520000140A8882A8910436A890A431043A08170
:10353000A08A4FF6FF410840A9890143A18268464D
:10354000FEF7E0FC1948844201D1039800E002989C
:10355000A189090400EBC00101EB0010296801D525
:10356000490000E08900B0FBF1F06422B0FBF2F109
:1035700009010B096FF018056B4300EB8300A38969
:103580001D044FF0320306D503EBC000B0FBF2F090
:1035900000F0070005E003EB0010B0FBF2F000F0D4
:1035A0000F000843208105B030BD00000038014005
:1035B0008088C0F308007047C1F30801818070471C
:1035C00038B5044601212020FEF790FC4020ADF8DC
:1035D000000003208DF802001420084D8DF8030030
:1035E00069462846FDF702FD4FF04001284614B118
:1035F000FDF754FD38BDFDF753FD38BD0014014003
:10360000FDF7AEB806480549022201600A72064A73
:103610000449C0E90112086800470000B0270020F3
:1036200040020020A80100200402002038B5142028
:103630008DF8000002208DF8010000258DF8025061
:1036400001248DF803406846FEF718FB13208DF81F
:1036500000008DF801408DF802508DF80340684657
:10366000FEF70CFB38BD000070B5294E3068294CC0
:1036700060806088284D29880840000401D5FDF746
:10368000AFF8608829880840400505D54FF6FF301F
:10369000306022484068804761882888014089045A
:1036A00002D54DF6FF71316061880140C80405D52F
:1036B0004EF6FF7030600020FEF7CCFC6088298851
:1036C000084000050BD51648007810B1FFF7B0FB95
:1036D00002E00220FEF7BEFC4FF2FF70306061880E
:1036E00028880140890505D54FF6FF5131602178C2
:1036F000491C217061880140C80507D54FF6FF605D
:103700003060BDE870400720FEF7A4BC70BD00002B
:10371000445C0040560100204C020020A80100201B
:103720002C020020FFF7A0BF0549002008600549D2
:103730004FF43F4008800249091F0860002070478D
:10374000445C00404C02002070B500F07F060D463E
:103750003046FDF7B7FC04463046FDF7A3FC0146B2
:1037600022462846FEF762FB204670BD70B500F089
:103770007F0514460E462846FDF7C0FC0146A2B25E
:10378000304600F007F8A1B22846FFF7D3F8002032
:1037900070BDFEE7094B10B5521C520803EB410106
:1037A0000AD000BF10F8013B521E10F8014B43EA4B
:1037B000042321F8043BF5D110BD00000060004057
:1037C0002DE9F0472A4CA3682678DFF8A8C0002529
:1037D000403316B1012E08D03CE05CF82060714304
:1037E0005643C4E905160121217021462A46DFF817
:1037F0008890DFF888A0256209E000BF19F80280F0
:103800008F680AF807808E68761C8E60521C8E685E
:103810009E42F3D31A4E0A624B6932889F184F6159
:103820008B699B1A8B615CF82020B3FBF2FC02FBD6
:103830001C332BB98D6093B2B91A104AFEF787F882
:10384000104832888168891A81604FF44051022003
:10385000FFF736F8A06918B10B480078042805D1A5
:10386000A56001210020FFF7EDF82570BDE8F08785
:103870008C000020840000204027002040170020FA
:1038800032010020A0270020300100200FB4054B9A
:1038900010B503A9044A029800F02CF810BC5DF89A
:1038A00014FB0000C7520008880200200FB4084B28
:1038B00010B504A902AA039800F01CF8044602A956
:1038C000002000F048FA204610BC5DF814FB000010
:1038D000573D000802E008C8121F08C1002AFAD1AB
:1038E00070477047002001E001C1121F002AFBD180
:1038F000704700002DE9FF4F8DB00F4605460026AA
:1039000006E025280BD0DDE90F1290476D1C761CD0
:1039100028780028F5D111B03046BDE8F08F00249A
:10392000A246A1460122EC4900E0044315F8013FFC
:10393000203B02FA03F00842F7D128782A2810D059
:103940006FF02F022878A0F13001092914D80AEB72
:103950008A0102EB410144F0020400EB010A6D1CF4
:10396000F0E701CF5FEA000A03D544F40054CAF13E
:10397000000A44F002046D1C28782E2817D115F88F
:10398000010F44F004042A280ED06FF02F0228788B
:10399000A0F1300109290AD809EB890102EB4101A4
:1039A00000EB01096D1CF2E757F8049B6D1C2878A9
:1039B0006C280FD006DC4C2817D068280DD06A2858
:1039C00014D104E0742810D07A280FD10DE044F40B
:1039D00000140AE044F4801401E044F440146978CF
:1039E000814202D104F580146D1C6D1C2A786E2A68
:1039F0001FD00CDC632A31D004DC002A8BD0582A7B
:103A000011D1A3E0642A68D0692A0CD165E0732A39
:103A10002ED004DC6F2A73D0702A04D19BE0752A63
:103A20006FD0782A6ED01046DDE90F129047761CD1
:103A300050E1C4F30250022806D0032809D004281C
:103A400001CF09D0066045E101CFF117C0E900615F
:103A500040E101CF06803DE106703BE117F8040B21
:103A60008DF8000000208DF80100EB46012003E0F6
:103A700057F804BB4FF0FF3061074FF0000102D44C
:103A80000DE008F10101884649450FDA8045F8DB71
:103A90001BF808100029F4D108E008F1010188465C
:103AA0008142FADB1BF808100029F6D1DDE90F236B
:103AB000AAEB08008146214600F036F9304400EBBD
:103AC000080604E0DDE90F121BF8010B9047B8F17E
:103AD0000108F7D221464846F7E00A21C4F3025311
:103AE0004FF0000B0891022B04D001CFC117032B1C
:103AF00009D00AE0FF1D27F00707F7E8020108E0F8
:103B000032E01FE020E000B2C117042B01D140B227
:103B1000C117031E71F1000307DA4FF0000CD0EB60
:103B20000C006CEB01012D2302E0230504D52B23AF
:103B30008DF82430012303E0E30701D02023F7E7C9
:103B4000984658E00A2110E010210EE010204FF0B6
:103B5000000B08900CE010214FF0000B44F004041F
:103B60004FF00809089103E008214FF0000B08917D
:103B7000C4F30253022B04D001CF0021032B06D043
:103B800006E0FF1D27F00707F7E8020103E080B217
:103B9000042B00D1C0B24FF0000823072BD5702AA8
:103BA00007D0DDF820C08CF0100C5CEA0B0C05D0BF
:103BB0000EE040238DF82430012308E050EA010391
:103BC00006D030238DF824308DF825200223984626
:103BD000DDF820C08CF0080C5CEA0B0C0BD150EA2D
:103BE000010301D1630706D530238DF824304FF04F
:103BF0000108A9F10109582A04D038A20B9208AA99
:103C00000A920BE03AA2F9E75B46089AFCF741FBFF
:103C10000B9B9B5C0A9A521E0A92137050EA010297
:103C2000F2D10A98ADEB000000F1200B600702D53D
:103C300024F4803401E04FF00109D94502DDA9EBFD
:103C40000B0000E0002000EB0B0141440890AAEBC0
:103C5000010AE00306D4DDE90F232146504600F0B7
:103C600063F806444FF0000908E009A911F80900BB
:103C7000DDE90F12904709F10109761CC145F4DB1B
:103C8000E0030CD5DDE90F232146504600F04CF847
:103C9000064404E0DDE90F1230209047761C0899B5
:103CA000481E08900029F5DC08E00A980A99007877
:103CB000491C0A91DDE90F129047761CBBF1000107
:103CC000ABF1010BF1DC21465046DDE90F2300F09A
:103CD00019F806446D1C1BE6092801003031323307
:103CE0003435363738396162636465660000000038
:103CF0003031323334353637383941424344454622
:103D0000000000002DE9F041044600251E4617463C
:103D1000880404D405E039462020B0476D1C641E99
:103D2000F9D52846BDE8F0812DE9F041044600258B
:103D30001E469046C80301D5302700E0202788049E
:103D400004D505E041463846B0476D1C641EF9D5E0
:103D50002846BDE8F0810A68531C0B60107070475C
:103D600010B5044600202071401EE062204601F09C
:103D70008DFB08B1032010BDB4F82E02A0F52A4136
:103D8000553901D0022010BD94F86600B4F86710D0
:103D900040EA01210848B0EB012F08D094F88210C6
:103DA000B4F8832041EA0221B0EB012F01D10020B9
:103DB00010BD012010BD00000046415400E0401C31
:103DC00002780AB18A42FAD1D0B27047426A0068DA
:103DD000438980784343B1FBF3F0121D02CA19B145
:103DE000884203D3401AF8E700207047116808445E
:103DF00070474269891E921E8A4201D8002070478E
:103E0000826A807801FB002070472DE9F0410F00A5
:103E1000054606D001F059FA022809D20120BDE872
:103E2000F081EE6816B16869B04207D8012605E056
:103E3000411CF4D069698142F1D83E463446686934
:103E4000641CA04202D80224022E0AD3214628462E
:103E500001F03BFA38B1411CE1D00128DFD0B44277
:103E6000EDD10020DBE76FF070422146284601F0DB
:103E70004DFD30B957B122463946284601F046FD7E
:103E800020B101280DD001242046C8E7EC60286944
:103E9000411CF9D0401E2861687940F0010068712A
:103EA000F2E74FF0FF34EFE72DE9F05F8B460E6845
:103EB00000E0761C31782F29FBD05C29F9D080698D
:103EC0000B228046202101F0DAFA0025AA46574647
:103ED0004FF00809F45D7F1C202C2ED92F2C2CD0FC
:103EE0005C2C2AD02E2C01D0CA450BD3B9F1080F77
:103EF00033D12E2C31D1A8064FF0080A4FF00B0910
:103F0000050EE7E7802C28D2214621A0FFF756FFB7
:103F100018BBA4F14100192802D845F0020507E0BA
:103F2000A4F16100192803D8203C45F00105E4B252
:103F300008F80A400AF1010ACCE7F119CBF80010A1
:103F4000202C01D8042000E00020BAF1000F04D09A
:103F500098F80010E52903D005E00620BDE8F09FA1
:103F6000052288F80020B9F1080F01D1A9060D0E2D
:103F700005F00301012901D140F01000C5F38101D2
:103F8000012901D140F0080088F80B000020E5E786
:103F9000222A2B2C3A3B3C3D3E3F5B5D7C7F000060
:103FA00070B50E460446002100F0E2F888B90025FD
:103FB0002169206801F06AFA58B961690978E52930
:103FC0000BD051B100250121204600F00AF800284D
:103FD000EED0042800D1072070BD6D1CB542F2D18F
:103FE00070BD2DE9F041C6880446761C30040F46AA
:103FF000000C33D0216989B3206842895209B6FB8D
:10400000F2F302FB1362002A59D1491C2161E168D5
:1040100009B3428983785209B6FBF2F25B1E1A4259
:104020004DD101F052F9054601281CD9681C32D047
:1040300020684169A9423CD887B1E168FFF7E5FEF5
:1040400005000ED0012D0ED0681C24D0206801F090
:10405000E8FD00BB09E00089B04230D80420BDE88B
:10406000F0810720FBE70220F9E720680021428960
:10407000303001F004FA29462068FFF7BAFE2168C3
:1040800000274FF00108C8620CE080F80480206827
:1040900001F0C7FD08B10120E1E72068C16A491CB1
:1040A0007F1CC16220688178B942EED8C16AC91B01
:1040B000C162E56029462068FFF79BFE2061E6802B
:1040C000206841894909B6FBF1F201FB12613022F7
:1040D00002EB4111084460610020C0E770B504465E
:1040E0000D46042020E0206801F0D0F908BB61698A
:1040F0000A78AAB1C97AE52A01F03F010AD02E2A2E
:1041000008D00F2906D021F0200108290AD000216B
:10411000A94210D000212046FFF763FF20B108E03C
:10412000042006E00121F3E721690029DBD1002802
:1041300001D00021216170BD70B504460121FFF757
:104140002FFF050012D12169206801F09FF90500B9
:104150000CD120220021606901F091F9D4E9050118
:104160000B2201F083F9216801200871284670BDF7
:1041700070B5C18083680D460446012B3ED020688F
:10418000416999423AD923B90178032906D1436A92
:1041900023B1418980784E09464311E00189A94243
:1041A0002CD9406A12E000BF01F08FF80346401C92
:1041B00022D0022B22D32068406998421ED9AD1B21
:1041C0002068B5421946EFD2FFF713FEE360A8B1AD
:1041D00021684A895209B5FBF2F2104420614889EE
:1041E0004009B5FBF0F200FB1250302202EB401008
:1041F00008446061002070BD012070BD022070BDC8
:1042000010B501004FF0010010D001290ED1FEF7CA
:10421000B9F94FF4FA70401E0004000CFBD1FEF710
:10422000B9FABDE81040012000F028B810BD030025
:104230004FF0040012D0012B10D1012904D0022923
:1042400005D0032909D106E04FF4006004E04FF4E3
:104250008050108001E001201060002070470B4664
:1042600010B501004FF0040007D0012905D111035A
:1042700082021846FEF7FEF8002010BD01004FF044
:10428000010002D0012900D10020704770B50D4611
:10429000014604207BB100290CD001290AD1140366
:1042A0002046FEF7FBF94FF4805221462846FEF7E0
:1042B0000BF9002070BD042070BD10B5044600F05D
:1042C00031FE002806D1204602F004F8002801D172
:1042D0000021216010BD10B5044601F0FBFF00284D
:1042E00001D10021216010BDF7B588B017460D46F9
:1042F000002208A9684600F061FE040038D10DB321
:104300000026314668460296FFF732FF04002FD19F
:1043100001216846FFF7E2FE040002D0042C0FD012
:1043200026E00B222846059901F0A0F80B20EE723A
:1043300001E02E5430B1401E295C2029F9D001E063
:104340002E700024A7B10098C16901F09FF8040005
:104350000ED10098007803280DD0272000F13001FD
:10436000009A31301044515C006841EA0020386006
:104370000BB02046F0BD4320F0E72DE9F14F8CB0A3
:1043800001F018F8074601220CA9684600F016FE55
:10439000040009D108A8069068460C9900F03EFF79
:1043A000040002D0042C02D08EE008248CE000210E
:1043B0000098FFF72AFD060009D0012E09D0701CD5
:1043C00009D0009801F02DFC040006D062E007241B
:1043D00060E002245EE001245CE031460098FFF7D3
:1043E00008FD009D804600216A893035284601F08D
:1043F00046F80B222021284601F041F82E242C708B
:104400001020E872F8B20790A875C7F3072B85F85B
:1044100017B0C7F3074A85F818A04FEA176985F85F
:1044200019903146284601F09CFB05F1200020221E
:104430002946074601F01AF885F8214000980299AC
:104440000078032804D10098406A884200D10021F6
:10445000384601F086FB0098877814E00099012027
:10446000C1F82C80009908F101080871009801F04A
:10447000D8FB04000ED1009800214289284600F0A4
:10448000FEFF7F1EFFB2002FE8D16846FFF754FE03
:10449000040004D03146009801F032FB14E0059886
:1044A0001021C1720799817580F817B080F818A0A3
:1044B00080F81990314601F054FB009901200871F1
:1044C000009801F056FB04460DB02046BDE8F08F81
:1044D0002DE9F74F86B016460798012803D9132017
:1044E00009B0BDE8F08F06A800F08EFF002801DAC1
:1044F0000B20F5E7F74951F820504DB10021297004
:10450000C0B20090FFF77CFEC10703D00320E7E7AD
:104510000C20E5E7400701D50A20E1E705F10A0292
:1045200002210098FFF783FE002870D16889B0F55A
:10453000805F6CD8B0F5007F69D303AA0121009891
:10454000FFF775FE0028F0D103998029F4D307986E
:1045500008B1002000E03F208146A1EB0901701E58
:104560000642039100D19EB968894FF4FA62400A6D
:10457000B2FBF0F0B1FBF0F20020D74B00E0401CA2
:1045800033F810609642FAD8D34A163232F81060E7
:10459000B6F5007F02D36889B6FBF0F686B1802EAF
:1045A00000D98026B1FBF6F0012740F6F672904262
:1045B00000D302274FF6F672904203D3032727E079
:1045C0000126EFE7032F23D0012F2CD04000001D40
:1045D0006A89401E1044B0FBF2F84FF48040B0FBF3
:1045E000F2F04FF0010A00BF049009EB0A0B049AA5
:1045F0000BEB08008418A219A2EB0900884247D8E7
:1046000002AA03210098FFF712FEB8B911E006E1F3
:104610006A89072303EB80001044B0FBF2F84FF0E7
:10462000200A0020E0E700EB4000401C4008C01CCE
:10463000CEE7029810B1B0F5004F01D901200290E9
:1046400001466018401E491E8843001B0290032F3C
:1046500011D0804403980499A0EB0A02A2EB08024F
:10466000511AB1FBF6F10591022F07D0032F0AD0A2
:10467000012F11D015E082448344EBE740F6F67237
:10468000914205D30DE008464FF6F671884201D2FB
:104690000E2025E70C240AE0B0F5803F06D2012465
:1046A00005E0B0F5803F01D2042400E0062407981D
:1046B00008B1F02038E06A8905F13000002101904E
:1046C00000F0DDFE05F5F7700121417081700021D9
:1046D000C1700471FE224271039B09EB030243F691
:1046E000C163B2FBF3F23F2343EA92040292847166
:1046F000C271037241728172C172039901730A0A15
:1047000042730A0C8273090EC173552085F82E027C
:10471000AA2085F82F02DDE9000101230022FFF71E
:10472000B5FD00287BD1F820019005F130046A899D
:104730000021204600F0A3FE0B2268A1204600F0D5
:1047400095FE6889E072000A2073667384F80EA0F3
:104750004FEA1A20E07301202074032F0BD040028F
:104760006074000AA0740398B0F5803F05D2E0742D
:10477000000A20750CE00020F2E784F82000010A0E
:1047800084F82110010C84F82210000E84F8230014
:10479000019860753F202076002060764FF0FF0A78
:1047A00084F81AA0E07684F81C904FEA192060770C
:1047B0004FEA1940A0774FEA1960E07700F0FAFD60
:1047C000802129220290032F2AD084F82700030A8F
:1047D00084F82830030C84F82930000E84F82A006D
:1047E00084F816804FEA1820E07584F8241084F8C5
:1047F000262013223CA104F12B0000BF00F036FE5E
:10480000552084F8FE01AA2084F8FF0101234A46BE
:1048100021460098FFF73AFD002800D136E0DDE0A0
:1048200084F84300030A84F84430030C84F84530CC
:10483000000E84F8460084F824804FEA182084F89B
:1048400025004FEA184084F826004FEA186084F8E3
:104850002700022084F82C00002084F82D0084F822
:104860002E0084F82F00012384F8303084F83100C2
:10487000062384F8323084F8330084F8401084F83A
:10488000422013221DA104F14700B7E7032F06D1F0
:10489000012309F1060221460098FFF7F7FC6A8917
:1048A0000021204600F0EBFD01980290032F31D04B
:1048B000012F2DD06FF0FF0101430291217002986A
:1048C000000A60700298000CA0700298000EE07060
:1048D0003DE0000078000020506A0008EBFE904D9B
:1048E00053444F53352E30004E4F204E414D4520FE
:1048F0002020204641542020202020004E4F204ED2
:10490000414D4520202020464154333220202000B4
:104910004949D1E760F0FF00029020700298000A38
:1049200060700298000CA0700298000EE07084F88D
:1049300004A084F805A084F806A084F807A084F8F1
:1049400008A084F809A084F80AA00F20E0725A4653
:104950000BF1010A012321460098FFF797FCE8BB01
:104960006A890021204600F08AFD01200AE05246B3
:104970000AF1010A012321460098FFF787FC68BB72
:104980000298401C02904045F1D3032F00D0049EB2
:1049900052460AF1010A012321460098FFF776FCEE
:1049A000E0B9761EF4D1032F3CD152202070607004
:1049B0006121A1704120E070722284F8E42184F822
:1049C000E52184F8E60184F8E7110598401E84F893
:1049D000E801010A84F8E911010C00E02AE084F8FA
:1049E000EA11000E84F8EB01022084F8EC010020AB
:1049F00084F8ED0184F8EE0184F8EF01552084F885
:104A0000FE01AA2084F8FF01012309F101022146D9
:104A10000098FFF73BFC012309F1070221460098AB
:104A2000FFF734FC002211460098FFF700FC002835
:104A30003FF45FAD012053E500FFFF0017B581B0E3
:104A4000144602980090684600F0DEFC002802DA66
:104A50000B2004B010BD0B4A002352F8201001B106
:104A60000B700199002900D00B7042F8201001D082
:104A7000012C01D00020ECE7002202A901A800F0DF
:104A80009DFAE6E7780000202DE9F7478BB0060095
:104A90000ED04FF0000802F01F0727F001020CA90A
:104AA0006846C6F8008000F089FA050004D08AE064
:104AB00009200EB0BDE8F08707A8069068460C995B
:104AC00000F0ACFB059C050001D104B9062517F0E8
:104AD0001C0F50D055B1042D03D16846FFF72CFBB5
:104AE0000546059C47F0080755B16CE0E07A10F0E8
:104AF000110F01D0072566E0780701D5082562E08F
:104B0000380746D500F056FCA073010AE173020C89
:104B10002274030E6374A075E1752276637684F8BF
:104B20000B8084F81C8084F81D8084F81E8084F833
:104B30001F802146009800F085FC81460021204618
:104B400001F00FF800990120B9F1000F08711ED093
:104B500000984946D0F82CA000F0D2FF050032D1D1
:104B60000099A9F10100C8605146009800F08EFC40
:104B700005000AD027E035BBE07AC10601D504253F
:104B800021E0B90701D5C007B4D1380701D547F0F6
:104B9000200700982146C06AC6E90704B77186F865
:104BA00007804746009800F04DFC3061207FD4F824
:104BB0001D1040EA0120C6E90270B76177620098D3
:104BC0003060C088B080284673E713B584B0040015
:104BD00006D0002205A9684600F0F0F918B11FE0E0
:104BE000092006B010BD0098206001A8A0612046F1
:104BF000059900F013FB78B9616931B1C87AC00634
:104C000011D5009800F01EFCA06000980021C0881B
:104C1000A0802046FFF7ACFA042804D00028E0D09A
:104C200000212160DDE70520FAE72DE9F04F8846F5
:104C300089B00021994615460446196001F04AFBE7
:104C4000002812D1E07900280FD1A079C0070BD03D
:104C5000D4E90201081A01274FF0020A04F1280BD7
:104C6000854200D9054697E0072009B0BDE8F08FDE
:104C70002268A1685089B1FBF0F300FB1313002BED
:104C80006BD1B1FBF0F093785B1E184010F0FF067B
:104C900011D129B1606A28B12046FFF797F805E0E5
:104CA000206903E01046616900F00FFB02281DD364
:104CB000411C4DD0606161692068FFF79AF8A8B186
:104CC0003044009020684189B5FBF1F1049131B383
:104CD000721881788A4201D9891B04914078414633
:104CE000049B009AFFF7BBFA90BB03E084F807A08F
:104CF0000220BAE7A07940060CD5A1690098081AED
:104D00000499884206D221684A89594600FB0280EC
:104D100000F0ACFB206846890498464332E0A26963
:104D200000998A4217D0A179490609D54078012314
:104D30005946FFF7ABFA58B9A07920F04000A071AE
:104D40002068012359464078009AFFF788FA10B18D
:104D5000E771012089E70098A0612068A168408977
:104D6000B1FBF0F200FB1212861AAE4200D92E46B9
:104D7000B1FBF0F200FB1210011932464046283117
:104D800000F074FBA068B0443044A060D9F8000083
:104D90008119AD1BC9F80010002D7FF469AF002008
:104DA00063E7FEB50E46044601F094FA002817D1D9
:104DB000BEB1C4F818D000212046FFF78FF90025B6
:104DC000042813D000280BD13146204600F0F6FA13
:104DD00000212046FFF705F9042801D100202561B4
:104DE000FEBD00212046FFF7C3F9FEBD2561EBE7BC
:104DF0002DE9F1438AB001220AA903A800F0DEF8E8
:104E0000002872D180468DF8008046460A9800E05E
:104E1000761C815D0029FBD100E0761E56B3811916
:104E200011F8011C2029F8D000242746E9460A98E9
:104E3000C55D7F1CA5F16100192801D8203DADB2E8
:104E4000802D51D2F5B3294632A0FEF7B7FFC8BB7B
:104E50000B2C49D209F80450641C4846B742E6D3EB
:104E600020210B2C02D20155641CFAE79DF80000AA
:104E7000E52839D0002103A8CDF81480FFF778F990
:104E8000002832D1012103A8FFF728F9012450B3EB
:104E900004282AD19DF800100020002925D00121E6
:104EA00003A8FFF77DF800281FD1202200210898D1
:104EB00000F0E5FA0B226946089800F0D7FA0820BE
:104EC000089900E010E0C87200F074FA089988753B
:104ED000089A010AD175089A010C000E11760899FA
:104EE000487611E001E003E006200BB0BDE8F08356
:104EF0009DF8000028B10B226946089800F0B6FA28
:104F0000E2E70899E520087003980471039800F01F
:104F100030FEEAE7222A2B2C2E3A3B3C3D3E3F5BFB
:104F20005D7C7F0070B5044601F0D4F900280ED1F5
:104F3000A1798A060BD548060ED52068012304F115
:104F400028014078A269FFF7A1F908B1012070BDDE
:104F5000A07920F04000A071E169206800F096FA85
:104F60000028F4D1256AE87A40F02000E872207B1E
:104F70002877A089000A6877E068000CA877E068C5
:104F8000000EE8772846216900F0EBFD00F012FAE8
:104F9000A875010AE975010C2976000E68760020D3
:104FA000A874E874A07920F02000A0712168012085
:104FB00008712068BDE8704000F0DBBD2DE9FF47B7
:104FC0004FF0000A0746C0F800A01646084600F059
:104FD0001BFA050003D50B2004B0BDE8F0878C4810
:104FE00050F825408CB13C60207820B16078FFF704
:104FF00045F9C1070BD084F800A0E8B26070FFF754
:10500000FFF8C10708D00320E6E70C20E4E70EB163
:10501000400704D40020DFE71EB1400701D50A2075
:10502000DAE7607804F10A020221FFF700F9A0BB79
:105030006089B0F5007F31D3B0F5805F2ED80025B0
:1050400029462046FEF78CFE012822D100206F461B
:1050500004EB001191F8F22101F5F7712AB10A7AF7
:10506000D1F8091042EA012100E0002147F82010A0
:10507000401C0428ECD3002657F826502DB12946B1
:105080002046FEF76DFE08B90AE00220761C042EC9
:10509000F2D3032802D0E8BB02E0FFE701209BE740
:1050A000B4F83B00B4F80AC0604560D1B4F84600DB
:1050B00028B994F85400D4F8551040EA0120A061B2
:1050C00094F840108146E170012901D002294ED1A7
:1050D000414394F83D00A070E0B1421E104246D119
:1050E000B4F841204FEA5C13B2FBF3F603FB16263B
:1050F00022817EB9B4F843602EB994F85060D4F898
:10510000517046EA0726E78F27B1B2FBF3F307EBAE
:10511000010800E02BE043449E4228D3F61AB6FB78
:10512000F0F020B3012640F6F678404500D3022681
:105130004FF6F678404500D30326801C2B44A3622B
:105140002F446061C4E90757032E12D07AB1394465
:105150006162022E18D000F0010100EB400001EB6B
:105160005000401E6044B0FBFCF149450ED90D20B3
:1051700032E7002AFBD194F85C10D4F85D2080005F
:1051800041EA02216162ECE74000EAE74FF0FF30BC
:105190002061E06080206071032E30D1B4F860009F
:1051A00001282CD12046691C00F070F938BB84F826
:1051B00005A0B4F82E02A0F52A4155391FD194F864
:1051C0003000D4F8311040EA01201249884216D14B
:1051D00094F81402D4F8151240EA01200E498842CE
:1051E0000DD194F81802D4F8191240EA0120206178
:1051F00094F81C02D4F81D1240EA0120E060044932
:105200002670091F0888401C0880E08002E7000023
:1052100078000020525261417272416173B50446B8
:10522000019908782F2801D05C2801D1491C0191EF
:105230000025A56001980078202805D2002120468D
:10524000FEF796FF65617CBD01A92046FEF72CFEA6
:105250000028F8D100212046FEF78AFFF8B921691D
:10526000206800F013F9D0B961690A782AB1CA7AC6
:1052700012070ED40A23A26903E004200FE05B1E8C
:1052800006D311F8015B12F8016BAD1BF7D000E0FB
:105290002DB100212046FEF7A4FE0028DFD0A16931
:1052A000C97A28B10428CED14907CCD405207CBDC9
:1052B0004907FCD46169C87AC006F7D5206800F0B8
:1052C000C1F8A060C0E7FDF76FBF2DE9F0410D46C2
:1052D000044602290BD36069A84208D920784FF010
:1052E000FF36012807D0022834D0032846D00126F3
:1052F0003046BDE8F081608905EB5507B7FBF0F05B
:10530000216A0144204600F0C1F80028F0D16089EC
:10531000B7FBF0F100FB11717F1CB7FBF0F02144EB
:1053200091F83080216A0144204600F0AFF800284F
:10533000DED16089B7FBF0F100FB1170204490F8DA
:10534000301048EA0120E90701D00609D0E7C0F390
:105350000B06CDE76089216A4008B5FBF0F00144F7
:10536000204600F093F80028C2D161896800B0FBA4
:10537000F1F201FB12002044068EB9E76089216A30
:105380008008B5FBF0F00144204600F07FF80028CB
:10539000AED16189A800B0FBF1F201FB12002044FC
:1053A00090F83010D0F8310041EA002020F070462B
:1053B0009EE70000004870470000214630B50369B1
:1053C00001F10902EBB1406900232E25C45C5B1C8E
:1053D000202C08D0052C00D1E524092B01D102F89E
:1053E000015B02F8014B0B2BF0D3C37A0B72037FE6
:1053F000D0F81D4043EA04230B60038B8B80C08AE6
:10540000C8800020107030BD10B504464FF0FF304A
:105410002268002A13D0114600E0491C0B78212B8A
:105420000ED33A2BF9D112F8013B303B0A2B06D2AE
:105430008A4204D1022B02D2491C1846216010BDB9
:10544000002010BD0246488B1278032A02D1898AB7
:1054500040EA0140704710B5FAF7A8FFFDF7F8FDE4
:10546000FBF784FE00F09CFE002010BD04E000BFAE
:1054700011F8013B00F8013B521EF9D27047C9B246
:1054800001E000F8011B521EFBD2704770B50446C4
:10549000C06A0D460026A8420FD0204600F0C1FB8E
:1054A00006000AD1607801232A4604F13001FEF794
:1054B000D6FE08B1751E0126E562304670BD0000BB
:1054C00070B50B4C054620684560A0682168854290
:1054D00005D2206BBDE87040091D00F03FBCE06ABA
:1054E000091D00F03BFC606A854200D2656270BD18
:1054F0003000002010B500F055FC0C4C206880B93D
:105500000B4800F01DFC0A48143000F019FC084854
:10551000A0601430E06000220C21042000F00AFF9B
:105520002060BDE8104000F04BBC0000640000208B
:105530001817002030B4026C0B46002A0BD0C1684B
:105540001144C1604468A14201D30168C16030BC0C
:105550001846FAF75BBE30BC704770B51546026C52
:105560000446002612B37DB1E068FAF74FFEE16809
:10557000206C091AE1602268914202D26168081A1F
:10558000E060022D0DD011E0A068FAF73FFE216C1B
:10559000A0680844A0606168884207D32068A060C2
:1055A00004E0A06B10B1A06B401EA063A06B401C78
:1055B000A063304670BD0000034C20680128FCD970
:1055C00000F030FCF9E700008C16002070B50024D4
:1055D00041600B4D0061914206D8D11A8269914217
:1055E00006D2011DE86807E09A4203D2994201D32E
:1055F000012403E0011DA86800F0B0FB204670BD47
:10560000640000202DE9F04781460B680020002B44
:105610003CD04B6801F108055B684B60AB4201D19F
:105620005C684C604B684FF0000ADE684B685B6852
:105630004B60AB4201D15C684C604B68DC6809EBA5
:10564000401304F13407C3E90047676C9F601A7385
:10565000E76A1F61032A03D1A76A0FB102271F73EC
:10566000C3F814A0C3F818A0276B4FF0000C02E099
:105670007F1C0CF1010C97F80080B8F1A50FF7D052
:105680004FEA9C07401C9F83B442CFD1BDE8F0870E
:1056900030B587B0234D3BE00498002838DB069CEA
:1056A000606910B1201D00F0E5FA02A800F096F83C
:1056B000024604980A282BD2DFE800F00505052AE7
:1056C0001F2705052A1F0598A169034601442046A6
:1056D000FFF77CFF01281BD1616A20468847E069FB
:1056E000012815D1002000900598A16900234218D7
:1056F0001946204601F088F90AE00598A061811852
:1057000013462046FFF762FF02E0204600F062FBEE
:1057100000231A4604A9286800F030FE0028BBD1F7
:1057200007B030BD640000202DE9FC410F4605465E
:1057300000F0A6FD01A800F051F80446019818B148
:1057400001F0D4F8BDE8FC811B4E7FB1F068006821
:1057500078B30027291B3A46306800F06FFB01F050
:10576000C5F80028EED100F05DFBEBE7A542F1D8CB
:1057700001F0BCF8B0682746C068C468201D00F07E
:1057800079FAE069012810D1A0692B4641193A46FF
:105790002046FFF71BFF012807D1002003460146E2
:1057A00000902A46204601F02FF9616A204688477A
:1057B000C8E7FFE70127CDE7640000200648C16A7B
:1057C000096829B1C16AC968C968496841627047F6
:1057D0004FF0FF31FAE700003000002070B50546B9
:1057E00000F0F2FF064E04467068844203D200F0D7
:1057F00009F8012000E0002028602046746070BD98
:1058000064000020F8B5144D1EE0C068C468066846
:10581000201D00F02FFA616A20468847E0690128C0
:1058200012D1A0693044B04206D924616060211DC4
:10583000A86800F093FA07E00020034601460090B4
:105840003246204601F0E0F8A86801680029DCD162
:10585000E968C5E90210F8BD64000020FAF7B6FC5B
:10586000FEE70000064B426900219A4206D1806A99
:10587000A3F11402904201D000B9012108467047FB
:1058800004170020074CA068016841B1C0680021DE
:10589000D0F80000FFF748FFFFF7FAFEF3E7012119
:1058A0000020F7E76400002070B5044600F07AFAA3
:1058B00004F124050AE0606A58B1284600F0E4FFCC
:1058C00008B100F0DFFBA06C401EA064A06C0028B3
:1058D000F1DC4FF0FF36A66400F072FA00F062FAD5
:1058E00004F110050AE0206958B1284600F0CCFF09
:1058F00008B100F0C7FB606C401E6064606C00285B
:10590000F1DC6664BDE8704000F05ABA2DE9F0475A
:1059100017460D460446022902D36069A84202D800
:105920000220BDE8F087217807F0FF084FF0010959
:10593000012925D002295FD00329F1D16089216A8C
:105940008008B5FBF0F001442046FFF79FFD0028DA
:10595000E7D16289A900B1FBF2F302FB13110A1926
:105960004FF07043D2F8311003EA0121394302F8B5
:10597000301F0B0A53700B0C9370090ED17052E05C
:10598000608905EB5506B6FBF0F0216A014420461C
:10599000FFF77CFD0028C4D16089B6FBF0F100FB65
:1059A000116020443030761CE90703D0017868F399
:1059B0001F1100E03946017084F804906089216A63
:1059C000B6FBF0F001442046FFF760FD0028A8D1A7
:1059D0006189B6FBF1F201FB126121443031EA0723
:1059E00002D0C7F3071205E00A78C7F3032302F0D9
:1059F000F0021A430A7016E06089216A4008B5FB7C
:105A0000F0F001442046FFF741FD002889D162896A
:105A10006900B1FBF2F302FB131121443A0A81F849
:105A2000308081F8312084F804907AE72DE9F04144
:105A30000446002500F024FC274A02F108015068C2
:105A400001F1080368B92548002720F00700C1E9E3
:105A5000000741F2F836C3E90076C0E900360120BC
:105A6000506041F2F73094B30834660704D004F074
:105A70000706C6F108063444661E864227D2164839
:105A80000968083001E0084631464E68A64202D255
:105A90000E68002EF7D1994219D005680B68036093
:105AA00048680835001B10280DD90B1958600A48A2
:105AB0004C6008305E6800E0204604686768B742C2
:105AC000FAD31C60036048681168081A106000F07F
:105AD0000DFF2846BDE8F08114000020940200204C
